{
  "address": "0xA5774321828b916D345fB328Bf95D22F0E6C1ddb",
  "abi": [
    {
      "inputs": [
        {
          "internalType": "address",
          "name": "owner",
          "type": "address"
        },
        {
          "internalType": "bool",
          "name": "permissioned",
          "type": "bool"
        }
      ],
      "stateMutability": "nonpayable",
      "type": "constructor"
    },
    {
      "anonymous": false,
      "inputs": [
        {
          "indexed": true,
          "internalType": "address",
          "name": "previousOwner",
          "type": "address"
        },
        {
          "indexed": true,
          "internalType": "address",
          "name": "newOwner",
          "type": "address"
        }
      ],
      "name": "OwnershipTransferred",
      "type": "event"
    },
    {
      "inputs": [],
      "name": "isPermissioned",
      "outputs": [
        {
          "internalType": "bool",
          "name": "",
          "type": "bool"
        }
      ],
      "stateMutability": "view",
      "type": "function"
    },
    {
      "inputs": [
        {
          "internalType": "address",
          "name": "token",
          "type": "address"
        },
        {
          "internalType": "address",
          "name": "to",
          "type": "address"
        },
        {
          "internalType": "uint256",
          "name": "amount",
          "type": "uint256"
        }
      ],
      "name": "mint",
      "outputs": [
        {
          "internalType": "uint256",
          "name": "",
          "type": "uint256"
        }
      ],
      "stateMutability": "nonpayable",
      "type": "function"
    },
    {
      "inputs": [],
      "name": "owner",
      "outputs": [
        {
          "internalType": "address",
          "name": "",
          "type": "address"
        }
      ],
      "stateMutability": "view",
      "type": "function"
    },
    {
      "inputs": [],
      "name": "renounceOwnership",
      "outputs": [],
      "stateMutability": "nonpayable",
      "type": "function"
    },
    {
      "inputs": [
        {
          "internalType": "bool",
          "name": "permissioned",
          "type": "bool"
        }
      ],
      "name": "setPermissioned",
      "outputs": [],
      "stateMutability": "nonpayable",
      "type": "function"
    },
    {
      "inputs": [
        {
          "internalType": "address",
          "name": "newOwner",
          "type": "address"
        }
      ],
      "name": "transferOwnership",
      "outputs": [],
      "stateMutability": "nonpayable",
      "type": "function"
    }
  ],
  "transactionHash": "0xed58cf43498fb56b7306f9b30321d26b03c98f0591ac0e491325ca527071ca22",
  "args": [
    "0xE0157B2E81506f7710e62b331eb113B232e89efA",
    false
  ],
  "numDeployments": 1,
  "solcInputHash": "e93df4dc87f8a0451aeb83b71d57f5ae",
  "bytecode": "0x608060405234801561001057600080fd5b5060405161090b38038061090b83398101604081905261002f916101a9565b600080546001600160a01b031916339081178255604051909182916000805160206108eb833981519152908290a3506001600160a01b03821661007157600080fd5b61007a8261009c565b60008054911515600160a01b0260ff60a01b19909216919091179055506101f4565b6000546001600160a01b031633146100fb5760405162461bcd60e51b815260206004820181905260248201527f4f776e61626c653a2063616c6c6572206973206e6f7420746865206f776e657260448201526064015b60405180910390fd5b6001600160a01b0381166101605760405162461bcd60e51b815260206004820152602660248201527f4f776e61626c653a206e6577206f776e657220697320746865207a65726f206160448201526564647265737360d01b60648201526084016100f2565b600080546040516001600160a01b03808516939216916000805160206108eb83398151915291a3600080546001600160a01b0319166001600160a01b0392909216919091179055565b600080604083850312156101bc57600080fd5b82516001600160a01b03811681146101d357600080fd5b602084015190925080151581146101e957600080fd5b809150509250929050565b6106e8806102036000396000f3fe608060405234801561001057600080fd5b50600436106100725760003560e01c8063c6c3bbe611610050578063c6c3bbe6146100c1578063e2a4157c146100e2578063f2fde38b1461011057600080fd5b80631a678cd314610077578063715018a61461008c5780638da5cb5b14610094575b600080fd5b61008a6100853660046105f1565b610123565b005b61008a6101f3565b60005460405173ffffffffffffffffffffffffffffffffffffffff90911681526020015b60405180910390f35b6100d46100cf36600461063e565b6102e3565b6040519081526020016100b8565b60005474010000000000000000000000000000000000000000900460ff1660405190151581526020016100b8565b61008a61011e36600461067a565b61042f565b60005473ffffffffffffffffffffffffffffffffffffffff1633146101a9576040517f08c379a000000000000000000000000000000000000000000000000000000000815260206004820181905260248201527f4f776e61626c653a2063616c6c6572206973206e6f7420746865206f776e657260448201526064015b60405180910390fd5b6000805491151574010000000000000000000000000000000000000000027fffffffffffffffffffffff00ffffffffffffffffffffffffffffffffffffffff909216919091179055565b60005473ffffffffffffffffffffffffffffffffffffffff163314610274576040517f08c379a000000000000000000000000000000000000000000000000000000000815260206004820181905260248201527f4f776e61626c653a2063616c6c6572206973206e6f7420746865206f776e657260448201526064016101a0565b6000805460405173ffffffffffffffffffffffffffffffffffffffff909116907f8be0079c531659141344cd1fd0a4f28419497f9722a3daafe3b4186f6b6457e0908390a3600080547fffffffffffffffffffffffff0000000000000000000000000000000000000000169055565b6000805474010000000000000000000000000000000000000000900460ff1615156001141561038d5760005473ffffffffffffffffffffffffffffffffffffffff16331461038d576040517f08c379a000000000000000000000000000000000000000000000000000000000815260206004820181905260248201527f4f776e61626c653a2063616c6c6572206973206e6f7420746865206f776e657260448201526064016101a0565b6040517f40c10f1900000000000000000000000000000000000000000000000000000000815273ffffffffffffffffffffffffffffffffffffffff8481166004830152602482018490528516906340c10f19906044016020604051808303816000875af1158015610402573d6000803e3d6000fd5b505050506040513d601f19601f820116820180604052508101906104269190610695565b50909392505050565b60005473ffffffffffffffffffffffffffffffffffffffff1633146104b0576040517f08c379a000000000000000000000000000000000000000000000000000000000815260206004820181905260248201527f4f776e61626c653a2063616c6c6572206973206e6f7420746865206f776e657260448201526064016101a0565b73ffffffffffffffffffffffffffffffffffffffff8116610553576040517f08c379a000000000000000000000000000000000000000000000000000000000815260206004820152602660248201527f4f776e61626c653a206e6577206f776e657220697320746865207a65726f206160448201527f646472657373000000000000000000000000000000000000000000000000000060648201526084016101a0565b6000805460405173ffffffffffffffffffffffffffffffffffffffff808516939216917f8be0079c531659141344cd1fd0a4f28419497f9722a3daafe3b4186f6b6457e091a3600080547fffffffffffffffffffffffff00000000000000000000000000000000000000001673ffffffffffffffffffffffffffffffffffffffff92909216919091179055565b80151581146105ee57600080fd5b50565b60006020828403121561060357600080fd5b813561060e816105e0565b9392505050565b803573ffffffffffffffffffffffffffffffffffffffff8116811461063957600080fd5b919050565b60008060006060848603121561065357600080fd5b61065c84610615565b925061066a60208501610615565b9150604084013590509250925092565b60006020828403121561068c57600080fd5b61060e82610615565b6000602082840312156106a757600080fd5b815161060e816105e056fea264697066735822122031b254c0973a1429c41c563f292a7defc44d2a8bb20841c9f7650b3c37d6cfb264736f6c634300080a00338be0079c531659141344cd1fd0a4f28419497f9722a3daafe3b4186f6b6457e0",
  "devdoc": {
    "details": "Ownable Faucet Contract",
    "kind": "dev",
    "methods": {
      "isPermissioned()": {
        "returns": {
          "_0": "Returns a boolean, if true the mode is enabled, if false is disabled"
        }
      },
      "mint(address,address,uint256)": {
        "params": {
          "amount": "The amount of tokens to mint",
          "to": "The address to send the minted tokens",
          "token": "The address of the token to perform the mint"
        },
        "returns": {
          "_0": "The amount minted*"
        }
      },
      "owner()": {
        "details": "Returns the address of the current owner."
      },
      "renounceOwnership()": {
        "details": "Leaves the contract without owner. It will not be possible to call `onlyOwner` functions anymore. Can only be called by the current owner. NOTE: Renouncing ownership will leave the contract without an owner, thereby removing any functionality that is only available to the owner."
      },
      "setPermissioned(bool)": {
        "params": {
          "value": "If true, ask for authentication at `mint` function, if false, disable the authentication"
        }
      },
      "transferOwnership(address)": {
        "details": "Transfers ownership of the contract to a new account (`newOwner`). Can only be called by the current owner."
      }
    },
    "title": "Faucet",
    "version": 1
  },
  "userdoc": {
    "kind": "user",
    "methods": {
      "isPermissioned()": {
        "notice": "Getter to determine if permissioned mode is enabled or disabled"
      },
      "mint(address,address,uint256)": {
        "notice": "Function to mint Testnet tokens to the destination address"
      },
      "setPermissioned(bool)": {
        "notice": "Enable or disable the need of authentication to call `mint` function"
      }
    },
    "version": 1
  },
  "storageLayout": {
    "storage": [
      {
        "astId": 1239,
        "contract": "@aave/periphery-v3/contracts/mocks/testnet-helpers/Faucet.sol:Faucet",
        "label": "_owner",
        "offset": 0,
        "slot": "0",
        "type": "t_address"
      },
      {
        "astId": 35576,
        "contract": "@aave/periphery-v3/contracts/mocks/testnet-helpers/Faucet.sol:Faucet",
        "label": "_permissioned",
        "offset": 20,
        "slot": "0",
        "type": "t_bool"
      }
    ],
    "types": {
      "t_address": {
        "encoding": "inplace",
        "label": "address",
        "numberOfBytes": "20"
      },
      "t_bool": {
        "encoding": "inplace",
        "label": "bool",
        "numberOfBytes": "1"
      }
    }
  }
}