{
  "address": "0x0C694942abAf9bE90f086c081A7fef3Cf1850446",
  "abi": [
    {
      "inputs": [],
      "name": "DISCOUNT_RATE",
      "outputs": [
        {
          "internalType": "uint256",
          "name": "",
          "type": "uint256"
        }
      ],
      "stateMutability": "view",
      "type": "function"
    },
    {
      "inputs": [],
      "name": "GHO_DISCOUNTED_PER_DISCOUNT_TOKEN",
      "outputs": [
        {
          "internalType": "uint256",
          "name": "",
          "type": "uint256"
        }
      ],
      "stateMutability": "view",
      "type": "function"
    },
    {
      "inputs": [],
      "name": "MIN_DEBT_TOKEN_BALANCE",
      "outputs": [
        {
          "internalType": "uint256",
          "name": "",
          "type": "uint256"
        }
      ],
      "stateMutability": "view",
      "type": "function"
    },
    {
      "inputs": [],
      "name": "MIN_DISCOUNT_TOKEN_BALANCE",
      "outputs": [
        {
          "internalType": "uint256",
          "name": "",
          "type": "uint256"
        }
      ],
      "stateMutability": "view",
      "type": "function"
    },
    {
      "inputs": [
        {
          "internalType": "uint256",
          "name": "debtBalance",
          "type": "uint256"
        },
        {
          "internalType": "uint256",
          "name": "discountTokenBalance",
          "type": "uint256"
        }
      ],
      "name": "calculateDiscountRate",
      "outputs": [
        {
          "internalType": "uint256",
          "name": "",
          "type": "uint256"
        }
      ],
      "stateMutability": "pure",
      "type": "function"
    }
  ],
  "transactionHash": "0xffb8353796918d5bd1a372312fd539ed902128ecd2600b235977b947da950958",
  "args": [],
  "numDeployments": 1,
  "solcInputHash": "2b6fe4af59ecc015f72062d04df7b7d6",
  "bytecode": "0x608060405234801561001057600080fd5b5061020b806100206000396000f3fe608060405234801561001057600080fd5b50600436106100575760003560e01c80633454274e1461005c578063771a73af1461007c57806393adbec51461008c57806398c4f4381461009f578063b510c589146100ae575b600080fd5b61006a66038d7ea4c6800081565b60405190815260200160405180910390f35b61006a68056bc75e2d6310000081565b61006a61009a366004610164565b6100b7565b61006a670de0b6b3a764000081565b61006a610bb881565b600066038d7ea4c680008210806100d55750670de0b6b3a764000083105b156100e257506000610126565b60006100f78368056bc75e2d6310000061012c565b905083811061010b57610bb8915050610126565b83610118610bb883610186565b61012291906101b3565b9150505b92915050565b600081156706f05b59d3b20000198390048411151761014a57600080fd5b50670de0b6b3a764000091026706f05b59d3b20000010490565b6000806040838503121561017757600080fd5b50508035926020909101359150565b60008160001904831182151516156101ae57634e487b7160e01b600052601160045260246000fd5b500290565b6000826101d057634e487b7160e01b600052601260045260246000fd5b50049056fea2646970667358221220f72aed4316264d065e88727ee3af86032825db5b8552739b5ad4ec51a14f5de464736f6c634300080a0033",
  "devdoc": {
    "author": "Aave",
    "kind": "dev",
    "methods": {
      "calculateDiscountRate(uint256,uint256)": {
        "params": {
          "debtBalance": "The debt balance of the user",
          "discountTokenBalance": "The discount token balance of the user"
        },
        "returns": {
          "_0": "The discount rate, as a percentage - the maximum can be 10000 = 100.00%"
        }
      }
    },
    "stateVariables": {
      "DISCOUNT_RATE": {
        "details": "Percentage of discount to apply to the part of the debt that is entitled to get a discount Expressed in bps, a value of 3000 results in 30.00%"
      },
      "GHO_DISCOUNTED_PER_DISCOUNT_TOKEN": {
        "details": "Amount of debt that is entitled to get a discount per unit of discount token Expressed with the number of decimals of the discounted token"
      },
      "MIN_DEBT_TOKEN_BALANCE": {
        "details": "Minimum balance amount of debt token to be entitled to a discount Expressed with the number of decimals of the debt token"
      },
      "MIN_DISCOUNT_TOKEN_BALANCE": {
        "details": "Minimum balance amount of discount token to be entitled to a discount Expressed with the number of decimals of the discount token"
      }
    },
    "title": "GhoDiscountRateStrategy contract",
    "version": 1
  },
  "userdoc": {
    "kind": "user",
    "methods": {
      "calculateDiscountRate(uint256,uint256)": {
        "notice": "Calculates the discount rate depending on the debt and discount token balances"
      }
    },
    "notice": "Implements the calculation of the discount rate depending on the current strategy",
    "version": 1
  },
  "storageLayout": {
    "storage": [],
    "types": null
  }
}