{
  "address": "0xF56300492ac37E75c45673DCA23Fa4935b1ecaa5",
  "abi": [
    {
      "inputs": [
        {
          "internalType": "address",
          "name": "ghoToken",
          "type": "address"
        },
        {
          "internalType": "address",
          "name": "ghoTreasury",
          "type": "address"
        },
        {
          "internalType": "uint256",
          "name": "fee",
          "type": "uint256"
        },
        {
          "internalType": "address",
          "name": "addressesProvider",
          "type": "address"
        }
      ],
      "stateMutability": "nonpayable",
      "type": "constructor"
    },
    {
      "anonymous": false,
      "inputs": [
        {
          "indexed": false,
          "internalType": "uint256",
          "name": "oldFee",
          "type": "uint256"
        },
        {
          "indexed": false,
          "internalType": "uint256",
          "name": "newFee",
          "type": "uint256"
        }
      ],
      "name": "FeeUpdated",
      "type": "event"
    },
    {
      "anonymous": false,
      "inputs": [
        {
          "indexed": true,
          "internalType": "address",
          "name": "ghoTreasury",
          "type": "address"
        },
        {
          "indexed": true,
          "internalType": "address",
          "name": "asset",
          "type": "address"
        },
        {
          "indexed": false,
          "internalType": "uint256",
          "name": "amount",
          "type": "uint256"
        }
      ],
      "name": "FeesDistributedToTreasury",
      "type": "event"
    },
    {
      "anonymous": false,
      "inputs": [
        {
          "indexed": true,
          "internalType": "address",
          "name": "receiver",
          "type": "address"
        },
        {
          "indexed": true,
          "internalType": "address",
          "name": "initiator",
          "type": "address"
        },
        {
          "indexed": false,
          "internalType": "address",
          "name": "asset",
          "type": "address"
        },
        {
          "indexed": true,
          "internalType": "uint256",
          "name": "amount",
          "type": "uint256"
        },
        {
          "indexed": false,
          "internalType": "uint256",
          "name": "fee",
          "type": "uint256"
        }
      ],
      "name": "FlashMint",
      "type": "event"
    },
    {
      "anonymous": false,
      "inputs": [
        {
          "indexed": true,
          "internalType": "address",
          "name": "oldGhoTreasury",
          "type": "address"
        },
        {
          "indexed": true,
          "internalType": "address",
          "name": "newGhoTreasury",
          "type": "address"
        }
      ],
      "name": "GhoTreasuryUpdated",
      "type": "event"
    },
    {
      "inputs": [],
      "name": "ADDRESSES_PROVIDER",
      "outputs": [
        {
          "internalType": "contract IPoolAddressesProvider",
          "name": "",
          "type": "address"
        }
      ],
      "stateMutability": "view",
      "type": "function"
    },
    {
      "inputs": [],
      "name": "CALLBACK_SUCCESS",
      "outputs": [
        {
          "internalType": "bytes32",
          "name": "",
          "type": "bytes32"
        }
      ],
      "stateMutability": "view",
      "type": "function"
    },
    {
      "inputs": [],
      "name": "GHO_TOKEN",
      "outputs": [
        {
          "internalType": "contract IGhoToken",
          "name": "",
          "type": "address"
        }
      ],
      "stateMutability": "view",
      "type": "function"
    },
    {
      "inputs": [],
      "name": "MAX_FEE",
      "outputs": [
        {
          "internalType": "uint256",
          "name": "",
          "type": "uint256"
        }
      ],
      "stateMutability": "view",
      "type": "function"
    },
    {
      "inputs": [],
      "name": "distributeFeesToTreasury",
      "outputs": [],
      "stateMutability": "nonpayable",
      "type": "function"
    },
    {
      "inputs": [
        {
          "internalType": "address",
          "name": "token",
          "type": "address"
        },
        {
          "internalType": "uint256",
          "name": "amount",
          "type": "uint256"
        }
      ],
      "name": "flashFee",
      "outputs": [
        {
          "internalType": "uint256",
          "name": "",
          "type": "uint256"
        }
      ],
      "stateMutability": "view",
      "type": "function"
    },
    {
      "inputs": [
        {
          "internalType": "contract IERC3156FlashBorrower",
          "name": "receiver",
          "type": "address"
        },
        {
          "internalType": "address",
          "name": "token",
          "type": "address"
        },
        {
          "internalType": "uint256",
          "name": "amount",
          "type": "uint256"
        },
        {
          "internalType": "bytes",
          "name": "data",
          "type": "bytes"
        }
      ],
      "name": "flashLoan",
      "outputs": [
        {
          "internalType": "bool",
          "name": "",
          "type": "bool"
        }
      ],
      "stateMutability": "nonpayable",
      "type": "function"
    },
    {
      "inputs": [],
      "name": "getFee",
      "outputs": [
        {
          "internalType": "uint256",
          "name": "",
          "type": "uint256"
        }
      ],
      "stateMutability": "view",
      "type": "function"
    },
    {
      "inputs": [],
      "name": "getGhoTreasury",
      "outputs": [
        {
          "internalType": "address",
          "name": "",
          "type": "address"
        }
      ],
      "stateMutability": "view",
      "type": "function"
    },
    {
      "inputs": [
        {
          "internalType": "address",
          "name": "token",
          "type": "address"
        }
      ],
      "name": "maxFlashLoan",
      "outputs": [
        {
          "internalType": "uint256",
          "name": "",
          "type": "uint256"
        }
      ],
      "stateMutability": "view",
      "type": "function"
    },
    {
      "inputs": [
        {
          "internalType": "uint256",
          "name": "newFee",
          "type": "uint256"
        }
      ],
      "name": "updateFee",
      "outputs": [],
      "stateMutability": "nonpayable",
      "type": "function"
    },
    {
      "inputs": [
        {
          "internalType": "address",
          "name": "newGhoTreasury",
          "type": "address"
        }
      ],
      "name": "updateGhoTreasury",
      "outputs": [],
      "stateMutability": "nonpayable",
      "type": "function"
    }
  ],
  "transactionHash": "0x8f049b9a459bc1c6caa7c4604fa1446604c9549670b70c0fbab6d2f5a0b36fde",
  "args": [
    "0xa253E6A7c15E950a02132CD1c60f0386CE821993",
    "0x3Cc29CBeA8dBef7C4e3F2486493154F9251566F6",
    100,
    "0xA8bd7972D4ca4bFB543d05322232279909F5f4fe"
  ],
  "numDeployments": 1,
  "solcInputHash": "2b6fe4af59ecc015f72062d04df7b7d6",
  "bytecode": "0x60e06040523480156200001157600080fd5b50604051620012443803806200124483398101604081905262000034916200023f565b6127108211156200008c5760405162461bcd60e51b815260206004820152601d60248201527f466c6173684d696e7465723a20466565206f7574206f662072616e676500000060448201526064015b60405180910390fd5b6001600160a01b03841660a052620000a48362000137565b620000af8262000189565b6001600160a01b03811660808190526040805163383e6b8b60e11b8152905163707cd716916004808201926020929091908290030181865afa158015620000fa573d6000803e3d6000fd5b505050506040513d601f19601f8201168201806040525081019062000120919062000293565b6001600160a01b031660c05250620002b892505050565b600180546001600160a01b038381166001600160a01b0319831681179093556040519116919082907f13f4413d8d93a259bd6c10f35095371f30ed50f81a73407e52e9f02000d5d16b90600090a35050565b612710811115620001dd5760405162461bcd60e51b815260206004820152601d60248201527f466c6173684d696e7465723a20466565206f7574206f662072616e6765000000604482015260640162000083565b600080549082905560408051828152602081018490527f528d9479e9f9889a87a3c30c7f7ba537e5e59c4c85a37733b16e57c62df61302910160405180910390a15050565b80516001600160a01b03811681146200023a57600080fd5b919050565b600080600080608085870312156200025657600080fd5b620002618562000222565b9350620002716020860162000222565b925060408501519150620002886060860162000222565b905092959194509250565b600060208284031215620002a657600080fd5b620002b18262000222565b9392505050565b60805160a05160c051610ef462000350600039600081816102090152818161033c015281816108000152610928015260008181610195015281816102d5015281816103ed015281816104930152818161055d0152818161061d0152818161068d015281816106fc0152818161075d015281816108c4015281816109cf01528181610a6e0152610aef0152600060be0152610ef46000f3fe608060405234801561001057600080fd5b50600436106100b45760003560e01c8063b1c660f711610071578063b1c660f714610190578063bc063e1a146101b7578063ced72f87146101c0578063d9d98ce4146101c8578063dc49a07b146101db578063e28178cc146101e357600080fd5b80630542975c146100b95780631fde40bb146100fd5780635cffe9de14610112578063613255ab146101355780638237e538146101565780639012c4a81461017d575b600080fd5b6100e07f000000000000000000000000000000000000000000000000000000000000000081565b6040516001600160a01b0390911681526020015b60405180910390f35b61011061010b366004610c7c565b6101f4565b005b610125610120366004610c99565b6102d1565b60405190151581526020016100f4565b610148610143366004610c7c565b6106f8565b6040519081526020016100f4565b6101487f439148f0bbc682ca079e46d6e2c2f0c1e3b820f1a291b069d8882abf8cf18dd981565b61011061018b366004610d38565b6107eb565b6100e07f000000000000000000000000000000000000000000000000000000000000000081565b61014861271081565b600054610148565b6101486101d6366004610d51565b6108c0565b6101106109b7565b6001546001600160a01b03166100e0565b604051637be53ca160e01b81523360048201527f00000000000000000000000000000000000000000000000000000000000000006001600160a01b031690637be53ca190602401602060405180830381865afa158015610258573d6000803e3d6000fd5b505050506040513d601f19601f8201168201806040525081019061027c9190610d7d565b6102c55760405162461bcd60e51b815260206004820152601560248201527421a0a62622a92fa727aa2fa827a7a62fa0a226a4a760591b60448201526064015b60405180910390fd5b6102ce81610b43565b50565b60007f00000000000000000000000000000000000000000000000000000000000000006001600160a01b0316856001600160a01b0316146103245760405162461bcd60e51b81526004016102bc90610d9f565b60405163fa50f29760e01b81523360048201526000907f00000000000000000000000000000000000000000000000000000000000000006001600160a01b03169063fa50f29790602401602060405180830381865afa15801561038b573d6000803e3d6000fd5b505050506040513d601f19601f820116820180604052508101906103af9190610d7d565b6103c1576103bc85610b95565b6103c4565b60005b6040516340c10f1960e01b81526001600160a01b038981166004830152602482018890529192507f0000000000000000000000000000000000000000000000000000000000000000909116906340c10f1990604401600060405180830381600087803b15801561043357600080fd5b505af1158015610447573d6000803e3d6000fd5b50506040516323e30c8b60e01b81527f439148f0bbc682ca079e46d6e2c2f0c1e3b820f1a291b069d8882abf8cf18dd992506001600160a01b038a1691506323e30c8b906104c39033907f0000000000000000000000000000000000000000000000000000000000000000908b9088908c908c90600401610de0565b6020604051808303816000875af11580156104e2573d6000803e3d6000fd5b505050506040513d601f19601f820116820180604052508101906105069190610e3c565b146105535760405162461bcd60e51b815260206004820152601c60248201527f466c6173684d696e7465723a2043616c6c6261636b206661696c65640000000060448201526064016102bc565b6001600160a01b037f0000000000000000000000000000000000000000000000000000000000000000166323b872dd883061058e858a610e6b565b6040516001600160e01b031960e086901b1681526001600160a01b03938416600482015292909116602483015260448201526064016020604051808303816000875af11580156105e2573d6000803e3d6000fd5b505050506040513d601f19601f820116820180604052508101906106069190610d7d565b50604051630852cd8d60e31b8152600481018690527f00000000000000000000000000000000000000000000000000000000000000006001600160a01b0316906342966c6890602401600060405180830381600087803b15801561066957600080fd5b505af115801561067d573d6000803e3d6000fd5b5050604080516001600160a01b037f000000000000000000000000000000000000000000000000000000000000000081168252602082018690528994503393508b16917f9c1558194024d73db1b6fc2739c3070cacc4598122100dd6f7d3a3dd8cee5f36910160405180910390a45060019695505050505050565b60007f00000000000000000000000000000000000000000000000000000000000000006001600160a01b0316826001600160a01b03161461073b57506000919050565b6040516355017ca560e11b815230600482015260009081906001600160a01b037f0000000000000000000000000000000000000000000000000000000000000000169063aa02f94a906024016040805180830381865afa1580156107a3573d6000803e3d6000fd5b505050506040513d601f19601f820116820180604052508101906107c79190610e83565b915091508082116107d95760006107e3565b6107e38183610ea7565b949350505050565b604051637be53ca160e01b81523360048201527f00000000000000000000000000000000000000000000000000000000000000006001600160a01b031690637be53ca190602401602060405180830381865afa15801561084f573d6000803e3d6000fd5b505050506040513d601f19601f820116820180604052508101906108739190610d7d565b6108b75760405162461bcd60e51b815260206004820152601560248201527421a0a62622a92fa727aa2fa827a7a62fa0a226a4a760591b60448201526064016102bc565b6102ce81610baa565b60007f00000000000000000000000000000000000000000000000000000000000000006001600160a01b0316836001600160a01b0316146109135760405162461bcd60e51b81526004016102bc90610d9f565b60405163fa50f29760e01b81523360048201527f00000000000000000000000000000000000000000000000000000000000000006001600160a01b03169063fa50f29790602401602060405180830381865afa158015610977573d6000803e3d6000fd5b505050506040513d601f19601f8201168201806040525081019061099b9190610d7d565b6109ad576109a882610b95565b6109b0565b60005b9392505050565b6040516370a0823160e01b81523060048201526000907f00000000000000000000000000000000000000000000000000000000000000006001600160a01b0316906370a0823190602401602060405180830381865afa158015610a1e573d6000803e3d6000fd5b505050506040513d601f19601f82011682018060405250810190610a429190610e3c565b60015460405163a9059cbb60e01b81526001600160a01b039182166004820152602481018390529192507f0000000000000000000000000000000000000000000000000000000000000000169063a9059cbb906044016020604051808303816000875af1158015610ab7573d6000803e3d6000fd5b505050506040513d601f19601f82011682018060405250810190610adb9190610d7d565b506001546040518281526001600160a01b037f000000000000000000000000000000000000000000000000000000000000000081169216907fb29fcda740927812f5a71075b62e132bead3769a455319c29b9a1cc461a654759060200160405180910390a350565b600180546001600160a01b038381166001600160a01b0319831681179093556040519116919082907f13f4413d8d93a259bd6c10f35095371f30ed50f81a73407e52e9f02000d5d16b90600090a35050565b60008054610ba4908390610c41565b92915050565b612710811115610bfc5760405162461bcd60e51b815260206004820152601d60248201527f466c6173684d696e7465723a20466565206f7574206f662072616e676500000060448201526064016102bc565b600080549082905560408051828152602081018490527f528d9479e9f9889a87a3c30c7f7ba537e5e59c4c85a37733b16e57c62df61302910160405180910390a15050565b600081156113881983900484111517610c5957600080fd5b506127109102611388010490565b6001600160a01b03811681146102ce57600080fd5b600060208284031215610c8e57600080fd5b81356109b081610c67565b600080600080600060808688031215610cb157600080fd5b8535610cbc81610c67565b94506020860135610ccc81610c67565b935060408601359250606086013567ffffffffffffffff80821115610cf057600080fd5b818801915088601f830112610d0457600080fd5b813581811115610d1357600080fd5b896020828501011115610d2557600080fd5b9699959850939650602001949392505050565b600060208284031215610d4a57600080fd5b5035919050565b60008060408385031215610d6457600080fd5b8235610d6f81610c67565b946020939093013593505050565b600060208284031215610d8f57600080fd5b815180151581146109b057600080fd5b60208082526021908201527f466c6173684d696e7465723a20556e737570706f727465642063757272656e636040820152607960f81b606082015260800190565b6001600160a01b03878116825286166020820152604081018590526060810184905260a06080820181905281018290526000828460c0840137600060c0848401015260c0601f19601f8501168301019050979650505050505050565b600060208284031215610e4e57600080fd5b5051919050565b634e487b7160e01b600052601160045260246000fd5b60008219821115610e7e57610e7e610e55565b500190565b60008060408385031215610e9657600080fd5b505080516020909101519092909150565b600082821015610eb957610eb9610e55565b50039056fea26469706673582212204491583e315455560e9cba8b0f9f96be5f4be1defefa3f40f947cf22529aa27f64736f6c634300080a0033",
  "devdoc": {
    "author": "Aave",
    "details": "Based heavily on the EIP3156 reference implementation",
    "kind": "dev",
    "methods": {
      "constructor": {
        "details": "Constructor",
        "params": {
          "addressesProvider": "The address of the Aave PoolAddressesProvider",
          "fee": "The percentage of the flash-mint amount that needs to be repaid, on top of the principal (in bps)",
          "ghoToken": "The address of the GHO token contract",
          "ghoTreasury": "The address of the GHO treasury"
        }
      },
      "flashFee(address,uint256)": {
        "details": "The fee to be charged for a given loan.",
        "params": {
          "amount": "The amount of tokens lent.",
          "token": "The loan currency."
        },
        "returns": {
          "_0": "The amount of `token` to be charged for the loan, on top of the returned principal."
        }
      },
      "flashLoan(address,address,uint256,bytes)": {
        "details": "Initiate a flash loan.",
        "params": {
          "amount": "The amount of tokens lent.",
          "data": "Arbitrary data structure, intended to contain user-defined parameters.",
          "receiver": "The receiver of the tokens in the loan, and the receiver of the callback.",
          "token": "The loan currency."
        }
      },
      "getFee()": {
        "returns": {
          "_0": "The percentage fee of the flash-minted amount that needs to be repaid, on top of the principal (in bps)."
        }
      },
      "getGhoTreasury()": {
        "returns": {
          "_0": "The address of the GhoTreasury contract"
        }
      },
      "maxFlashLoan(address)": {
        "details": "The amount of currency available to be lended.",
        "params": {
          "token": "The loan currency."
        },
        "returns": {
          "_0": "The amount of `token` that can be borrowed."
        }
      },
      "updateFee(uint256)": {
        "details": "The fee is expressed in bps. A value of 100, results in 1.00%",
        "params": {
          "newFee": "The new percentage fee (in bps)"
        }
      },
      "updateGhoTreasury(address)": {
        "details": "WARNING: The GhoTreasury is where revenue fees are sent to. Update carefully",
        "params": {
          "newGhoTreasury": "The address of the GhoTreasury"
        }
      }
    },
    "stateVariables": {
      "ADDRESSES_PROVIDER": {
        "return": "The address of the PoolAddressesProvider",
        "returns": {
          "_0": "The address of the PoolAddressesProvider"
        }
      },
      "CALLBACK_SUCCESS": {
        "return": "The required callback, the keccak256 hash of 'ERC3156FlashBorrower.onFlashLoan'",
        "returns": {
          "_0": "The required callback, the keccak256 hash of 'ERC3156FlashBorrower.onFlashLoan'"
        }
      },
      "GHO_TOKEN": {
        "return": "The address of the GhoToken",
        "returns": {
          "_0": "The address of the GhoToken"
        }
      },
      "MAX_FEE": {
        "return": "The maximum percentage fee of the flash-minted amount that the flashFee can be set to (in bps).",
        "returns": {
          "_0": "The maximum percentage fee of the flash-minted amount that the flashFee can be set to (in bps)."
        }
      }
    },
    "title": "GhoFlashMinter",
    "version": 1
  },
  "userdoc": {
    "kind": "user",
    "methods": {
      "ADDRESSES_PROVIDER()": {
        "notice": "Returns the address of the Aave Pool Addresses Provider contract"
      },
      "CALLBACK_SUCCESS()": {
        "notice": "Returns the required return value for a successful flashmint"
      },
      "GHO_TOKEN()": {
        "notice": "Returns the address of the GHO token contract"
      },
      "MAX_FEE()": {
        "notice": "Returns the maximum value the fee can be set to"
      },
      "distributeFeesToTreasury()": {
        "notice": "Distribute fees to the GhoTreasury"
      },
      "getFee()": {
        "notice": "Returns the percentage of each flash mint taken as a fee"
      },
      "getGhoTreasury()": {
        "notice": "Returns the address of the Gho Treasury"
      },
      "updateFee(uint256)": {
        "notice": "Updates the percentage fee. It is the percentage of the flash-minted amount that needs to be repaid."
      },
      "updateGhoTreasury(address)": {
        "notice": "Updates the address of the Gho Treasury"
      }
    },
    "notice": "Contract that enables FlashMinting of GHO.",
    "version": 1
  },
  "storageLayout": {
    "storage": [
      {
        "astId": 75056,
        "contract": "src/contracts/facilitators/flashMinter/GhoFlashMinter.sol:GhoFlashMinter",
        "label": "_fee",
        "offset": 0,
        "slot": "0",
        "type": "t_uint256"
      },
      {
        "astId": 75058,
        "contract": "src/contracts/facilitators/flashMinter/GhoFlashMinter.sol:GhoFlashMinter",
        "label": "_ghoTreasury",
        "offset": 0,
        "slot": "1",
        "type": "t_address"
      }
    ],
    "types": {
      "t_address": {
        "encoding": "inplace",
        "label": "address",
        "numberOfBytes": "20"
      },
      "t_uint256": {
        "encoding": "inplace",
        "label": "uint256",
        "numberOfBytes": "32"
      }
    }
  }
}