{
  "address": "0xcFeaB8377B4c221E9430f2Df92bf9a56e18391fC",
  "abi": [
    {
      "inputs": [
        {
          "internalType": "address",
          "name": "addressesProvider",
          "type": "address"
        },
        {
          "internalType": "uint256",
          "name": "borrowRate",
          "type": "uint256"
        }
      ],
      "stateMutability": "nonpayable",
      "type": "constructor"
    },
    {
      "inputs": [],
      "name": "ADDRESSES_PROVIDER",
      "outputs": [
        {
          "internalType": "contract IPoolAddressesProvider",
          "name": "",
          "type": "address"
        }
      ],
      "stateMutability": "view",
      "type": "function"
    },
    {
      "inputs": [],
      "name": "MAX_EXCESS_STABLE_TO_TOTAL_DEBT_RATIO",
      "outputs": [
        {
          "internalType": "uint256",
          "name": "",
          "type": "uint256"
        }
      ],
      "stateMutability": "view",
      "type": "function"
    },
    {
      "inputs": [],
      "name": "MAX_EXCESS_USAGE_RATIO",
      "outputs": [
        {
          "internalType": "uint256",
          "name": "",
          "type": "uint256"
        }
      ],
      "stateMutability": "view",
      "type": "function"
    },
    {
      "inputs": [],
      "name": "OPTIMAL_STABLE_TO_TOTAL_DEBT_RATIO",
      "outputs": [
        {
          "internalType": "uint256",
          "name": "",
          "type": "uint256"
        }
      ],
      "stateMutability": "view",
      "type": "function"
    },
    {
      "inputs": [],
      "name": "OPTIMAL_USAGE_RATIO",
      "outputs": [
        {
          "internalType": "uint256",
          "name": "",
          "type": "uint256"
        }
      ],
      "stateMutability": "view",
      "type": "function"
    },
    {
      "inputs": [
        {
          "components": [
            {
              "internalType": "uint256",
              "name": "unbacked",
              "type": "uint256"
            },
            {
              "internalType": "uint256",
              "name": "liquidityAdded",
              "type": "uint256"
            },
            {
              "internalType": "uint256",
              "name": "liquidityTaken",
              "type": "uint256"
            },
            {
              "internalType": "uint256",
              "name": "totalStableDebt",
              "type": "uint256"
            },
            {
              "internalType": "uint256",
              "name": "totalVariableDebt",
              "type": "uint256"
            },
            {
              "internalType": "uint256",
              "name": "averageStableBorrowRate",
              "type": "uint256"
            },
            {
              "internalType": "uint256",
              "name": "reserveFactor",
              "type": "uint256"
            },
            {
              "internalType": "address",
              "name": "reserve",
              "type": "address"
            },
            {
              "internalType": "address",
              "name": "aToken",
              "type": "address"
            }
          ],
          "internalType": "struct DataTypes.CalculateInterestRatesParams",
          "name": "",
          "type": "tuple"
        }
      ],
      "name": "calculateInterestRates",
      "outputs": [
        {
          "internalType": "uint256",
          "name": "",
          "type": "uint256"
        },
        {
          "internalType": "uint256",
          "name": "",
          "type": "uint256"
        },
        {
          "internalType": "uint256",
          "name": "",
          "type": "uint256"
        }
      ],
      "stateMutability": "view",
      "type": "function"
    },
    {
      "inputs": [],
      "name": "getBaseStableBorrowRate",
      "outputs": [
        {
          "internalType": "uint256",
          "name": "",
          "type": "uint256"
        }
      ],
      "stateMutability": "pure",
      "type": "function"
    },
    {
      "inputs": [],
      "name": "getBaseVariableBorrowRate",
      "outputs": [
        {
          "internalType": "uint256",
          "name": "",
          "type": "uint256"
        }
      ],
      "stateMutability": "view",
      "type": "function"
    },
    {
      "inputs": [],
      "name": "getMaxVariableBorrowRate",
      "outputs": [
        {
          "internalType": "uint256",
          "name": "",
          "type": "uint256"
        }
      ],
      "stateMutability": "view",
      "type": "function"
    },
    {
      "inputs": [],
      "name": "getStableRateExcessOffset",
      "outputs": [
        {
          "internalType": "uint256",
          "name": "",
          "type": "uint256"
        }
      ],
      "stateMutability": "pure",
      "type": "function"
    },
    {
      "inputs": [],
      "name": "getStableRateSlope1",
      "outputs": [
        {
          "internalType": "uint256",
          "name": "",
          "type": "uint256"
        }
      ],
      "stateMutability": "pure",
      "type": "function"
    },
    {
      "inputs": [],
      "name": "getStableRateSlope2",
      "outputs": [
        {
          "internalType": "uint256",
          "name": "",
          "type": "uint256"
        }
      ],
      "stateMutability": "pure",
      "type": "function"
    },
    {
      "inputs": [],
      "name": "getVariableRateSlope1",
      "outputs": [
        {
          "internalType": "uint256",
          "name": "",
          "type": "uint256"
        }
      ],
      "stateMutability": "pure",
      "type": "function"
    },
    {
      "inputs": [],
      "name": "getVariableRateSlope2",
      "outputs": [
        {
          "internalType": "uint256",
          "name": "",
          "type": "uint256"
        }
      ],
      "stateMutability": "pure",
      "type": "function"
    }
  ],
  "transactionHash": "0xae02f50877edbd4c618ce1ab52b64dd11f4c747d6a08490bb83cad21de0ee81f",
  "args": [
    "0xA8bd7972D4ca4bFB543d05322232279909F5f4fe",
    "20000000000000000000000000"
  ],
  "numDeployments": 1,
  "solcInputHash": "2b6fe4af59ecc015f72062d04df7b7d6",
  "bytecode": "0x60c060405234801561001057600080fd5b5060405161037e38038061037e83398101604081905261002f91610045565b6001600160a01b0390911660805260a05261007f565b6000806040838503121561005857600080fd5b82516001600160a01b038116811461006f57600080fd5b6020939093015192949293505050565b60805160a0516102d46100aa6000396000818161014601526101880152600060f401526102d46000f3fe608060405234801561001057600080fd5b50600436106100ea5760003560e01c8063a58987091161008c578063bc62690811610066578063bc62690814610133578063d5cd739114610133578063f420240914610133578063fe5fd6981461016a57600080fd5b8063a589870914610172578063a9c622f81461016a578063acd786861461013357600080fd5b806334762ca5116100c857806334762ca51461014457806354c365c61461016a5780636fb925891461016a57806380031e371461014457600080fd5b80630542975c146100ef5780630b3429a21461013357806314e32da414610133575b600080fd5b6101167f000000000000000000000000000000000000000000000000000000000000000081565b6040516001600160a01b0390911681526020015b60405180910390f35b60005b60405190815260200161012a565b7f0000000000000000000000000000000000000000000000000000000000000000610136565b610136600081565b6101aa610180366004610219565b5060009081907f000000000000000000000000000000000000000000000000000000000000000090565b6040805193845260208401929092529082015260600161012a565b604051610120810167ffffffffffffffff811182821017156101f757634e487b7160e01b600052604160045260246000fd5b60405290565b80356001600160a01b038116811461021457600080fd5b919050565b6000610120828403121561022c57600080fd5b6102346101c5565b823581526020830135602082015260408301356040820152606083013560608201526080830135608082015260a083013560a082015260c083013560c082015261028060e084016101fd565b60e08201526101006102938185016101fd565b90820152939250505056fea2646970667358221220ca6dab7705d8ac65a891ccdd47dde0f0a1649d6e65718d17f6da0f2975b9ae6264736f6c634300080a0033",
  "devdoc": {
    "author": "Aave",
    "details": "The variable borrow interest rate is fixed at deployment time. The rest of parameters are zeroed.",
    "kind": "dev",
    "methods": {
      "calculateInterestRates((uint256,uint256,uint256,uint256,uint256,uint256,uint256,address,address))": {
        "params": {
          "params": "The parameters needed to calculate interest rates"
        },
        "returns": {
          "_0": "liquidityRate The liquidity rate expressed in rays",
          "_1": "stableBorrowRate The stable borrow rate expressed in rays",
          "_2": "variableBorrowRate The variable borrow rate expressed in rays"
        }
      },
      "constructor": {
        "details": "Constructor",
        "params": {
          "addressesProvider": "The address of the PoolAddressesProvider",
          "borrowRate": "The variable borrow rate (expressed in ray)"
        }
      },
      "getBaseStableBorrowRate()": {
        "returns": {
          "_0": "The base stable borrow rate, expressed in ray"
        }
      },
      "getBaseVariableBorrowRate()": {
        "returns": {
          "_0": "The base variable borrow rate, expressed in ray"
        }
      },
      "getMaxVariableBorrowRate()": {
        "returns": {
          "_0": "The maximum variable borrow rate, expressed in ray"
        }
      },
      "getStableRateExcessOffset()": {
        "details": "It's an additional premium applied to the stable when stable debt > OPTIMAL_STABLE_TO_TOTAL_DEBT_RATIO",
        "returns": {
          "_0": "The stable rate excess offset, expressed in ray"
        }
      },
      "getStableRateSlope1()": {
        "details": "It's the stable rate when usage ratio > 0 and <= OPTIMAL_USAGE_RATIO",
        "returns": {
          "_0": "The stable rate slope, expressed in ray"
        }
      },
      "getStableRateSlope2()": {
        "details": "It's the variable rate when usage ratio > OPTIMAL_USAGE_RATIO",
        "returns": {
          "_0": "The stable rate slope, expressed in ray"
        }
      },
      "getVariableRateSlope1()": {
        "details": "It's the variable rate when usage ratio > 0 and <= OPTIMAL_USAGE_RATIO",
        "returns": {
          "_0": "The variable rate slope, expressed in ray"
        }
      },
      "getVariableRateSlope2()": {
        "details": "It's the variable rate when usage ratio > OPTIMAL_USAGE_RATIO",
        "returns": {
          "_0": "The variable rate slope, expressed in ray"
        }
      }
    },
    "stateVariables": {
      "ADDRESSES_PROVIDER": {
        "return": "The address of the PoolAddressesProvider contract",
        "returns": {
          "_0": "The address of the PoolAddressesProvider contract"
        }
      },
      "MAX_EXCESS_STABLE_TO_TOTAL_DEBT_RATIO": {
        "details": "It's always equal to 1-optimal stable to total debt ratio (added as constant for gas optimizations)",
        "return": "The max excess stable to total debt ratio, expressed in ray.",
        "returns": {
          "_0": "The max excess stable to total debt ratio, expressed in ray."
        }
      },
      "MAX_EXCESS_USAGE_RATIO": {
        "details": "It's always equal to 1-optimal usage ratio (added as constant for gas optimizations)",
        "return": "The max excess usage ratio, expressed in ray.",
        "returns": {
          "_0": "The max excess usage ratio, expressed in ray."
        }
      },
      "OPTIMAL_STABLE_TO_TOTAL_DEBT_RATIO": {
        "return": "The optimal stable to total debt ratio, expressed in ray.",
        "returns": {
          "_0": "The optimal stable to total debt ratio, expressed in ray."
        }
      },
      "OPTIMAL_USAGE_RATIO": {
        "return": "The optimal usage ratio, expressed in ray.",
        "returns": {
          "_0": "The optimal usage ratio, expressed in ray."
        }
      }
    },
    "title": "GhoInterestRateStrategy",
    "version": 1
  },
  "userdoc": {
    "kind": "user",
    "methods": {
      "ADDRESSES_PROVIDER()": {
        "notice": "Returns the address of the PoolAddressesProvider"
      },
      "MAX_EXCESS_STABLE_TO_TOTAL_DEBT_RATIO()": {
        "notice": "Returns the excess stable debt ratio above the optimal."
      },
      "MAX_EXCESS_USAGE_RATIO()": {
        "notice": "Returns the excess usage ratio above the optimal."
      },
      "OPTIMAL_STABLE_TO_TOTAL_DEBT_RATIO()": {
        "notice": "Returns the optimal stable to total debt ratio of the reserve."
      },
      "OPTIMAL_USAGE_RATIO()": {
        "notice": "Returns the usage ratio at which the pool aims to obtain most competitive borrow rates."
      },
      "calculateInterestRates((uint256,uint256,uint256,uint256,uint256,uint256,uint256,address,address))": {
        "notice": "Calculates the interest rates depending on the reserve's state and configurations"
      },
      "getBaseStableBorrowRate()": {
        "notice": "Returns the base stable borrow rate"
      },
      "getBaseVariableBorrowRate()": {
        "notice": "Returns the base variable borrow rate"
      },
      "getMaxVariableBorrowRate()": {
        "notice": "Returns the maximum variable borrow rate"
      },
      "getStableRateExcessOffset()": {
        "notice": "Returns the stable rate excess offset"
      },
      "getStableRateSlope1()": {
        "notice": "Returns the stable rate slope below optimal usage ratio"
      },
      "getStableRateSlope2()": {
        "notice": "Returns the stable rate slope above optimal usage ratio"
      },
      "getVariableRateSlope1()": {
        "notice": "Returns the variable rate slope below optimal usage ratio"
      },
      "getVariableRateSlope2()": {
        "notice": "Returns the variable rate slope above optimal usage ratio"
      }
    },
    "notice": "Implements the calculation of GHO interest rates, which defines a fixed variable borrow rate.",
    "version": 1
  },
  "storageLayout": {
    "storage": [],
    "types": null
  }
}