{
  "address": "0xe787f1cC09B2B09c6cD75DaB3615694D76C96f66",
  "abi": [
    {
      "inputs": [
        {
          "internalType": "contract IPool",
          "name": "pool",
          "type": "address"
        }
      ],
      "stateMutability": "nonpayable",
      "type": "constructor"
    },
    {
      "anonymous": false,
      "inputs": [
        {
          "indexed": true,
          "internalType": "address",
          "name": "aToken",
          "type": "address"
        }
      ],
      "name": "ATokenSet",
      "type": "event"
    },
    {
      "anonymous": false,
      "inputs": [
        {
          "indexed": true,
          "internalType": "address",
          "name": "owner",
          "type": "address"
        },
        {
          "indexed": true,
          "internalType": "address",
          "name": "spender",
          "type": "address"
        },
        {
          "indexed": false,
          "internalType": "uint256",
          "name": "value",
          "type": "uint256"
        }
      ],
      "name": "Approval",
      "type": "event"
    },
    {
      "anonymous": false,
      "inputs": [
        {
          "indexed": true,
          "internalType": "address",
          "name": "fromUser",
          "type": "address"
        },
        {
          "indexed": true,
          "internalType": "address",
          "name": "toUser",
          "type": "address"
        },
        {
          "indexed": true,
          "internalType": "address",
          "name": "asset",
          "type": "address"
        },
        {
          "indexed": false,
          "internalType": "uint256",
          "name": "amount",
          "type": "uint256"
        }
      ],
      "name": "BorrowAllowanceDelegated",
      "type": "event"
    },
    {
      "anonymous": false,
      "inputs": [
        {
          "indexed": true,
          "internalType": "address",
          "name": "from",
          "type": "address"
        },
        {
          "indexed": true,
          "internalType": "address",
          "name": "target",
          "type": "address"
        },
        {
          "indexed": false,
          "internalType": "uint256",
          "name": "value",
          "type": "uint256"
        },
        {
          "indexed": false,
          "internalType": "uint256",
          "name": "balanceIncrease",
          "type": "uint256"
        },
        {
          "indexed": false,
          "internalType": "uint256",
          "name": "index",
          "type": "uint256"
        }
      ],
      "name": "Burn",
      "type": "event"
    },
    {
      "anonymous": false,
      "inputs": [
        {
          "indexed": true,
          "internalType": "address",
          "name": "user",
          "type": "address"
        },
        {
          "indexed": false,
          "internalType": "uint256",
          "name": "oldDiscountPercent",
          "type": "uint256"
        },
        {
          "indexed": true,
          "internalType": "uint256",
          "name": "newDiscountPercent",
          "type": "uint256"
        }
      ],
      "name": "DiscountPercentUpdated",
      "type": "event"
    },
    {
      "anonymous": false,
      "inputs": [
        {
          "indexed": true,
          "internalType": "address",
          "name": "oldDiscountRateStrategy",
          "type": "address"
        },
        {
          "indexed": true,
          "internalType": "address",
          "name": "newDiscountRateStrategy",
          "type": "address"
        }
      ],
      "name": "DiscountRateStrategyUpdated",
      "type": "event"
    },
    {
      "anonymous": false,
      "inputs": [
        {
          "indexed": true,
          "internalType": "address",
          "name": "oldDiscountToken",
          "type": "address"
        },
        {
          "indexed": true,
          "internalType": "address",
          "name": "newDiscountToken",
          "type": "address"
        }
      ],
      "name": "DiscountTokenUpdated",
      "type": "event"
    },
    {
      "anonymous": false,
      "inputs": [
        {
          "indexed": true,
          "internalType": "address",
          "name": "underlyingAsset",
          "type": "address"
        },
        {
          "indexed": true,
          "internalType": "address",
          "name": "pool",
          "type": "address"
        },
        {
          "indexed": false,
          "internalType": "address",
          "name": "incentivesController",
          "type": "address"
        },
        {
          "indexed": false,
          "internalType": "uint8",
          "name": "debtTokenDecimals",
          "type": "uint8"
        },
        {
          "indexed": false,
          "internalType": "string",
          "name": "debtTokenName",
          "type": "string"
        },
        {
          "indexed": false,
          "internalType": "string",
          "name": "debtTokenSymbol",
          "type": "string"
        },
        {
          "indexed": false,
          "internalType": "bytes",
          "name": "params",
          "type": "bytes"
        }
      ],
      "name": "Initialized",
      "type": "event"
    },
    {
      "anonymous": false,
      "inputs": [
        {
          "indexed": true,
          "internalType": "address",
          "name": "caller",
          "type": "address"
        },
        {
          "indexed": true,
          "internalType": "address",
          "name": "onBehalfOf",
          "type": "address"
        },
        {
          "indexed": false,
          "internalType": "uint256",
          "name": "value",
          "type": "uint256"
        },
        {
          "indexed": false,
          "internalType": "uint256",
          "name": "balanceIncrease",
          "type": "uint256"
        },
        {
          "indexed": false,
          "internalType": "uint256",
          "name": "index",
          "type": "uint256"
        }
      ],
      "name": "Mint",
      "type": "event"
    },
    {
      "anonymous": false,
      "inputs": [
        {
          "indexed": true,
          "internalType": "address",
          "name": "from",
          "type": "address"
        },
        {
          "indexed": true,
          "internalType": "address",
          "name": "to",
          "type": "address"
        },
        {
          "indexed": false,
          "internalType": "uint256",
          "name": "value",
          "type": "uint256"
        }
      ],
      "name": "Transfer",
      "type": "event"
    },
    {
      "inputs": [],
      "name": "DEBT_TOKEN_REVISION",
      "outputs": [
        {
          "internalType": "uint256",
          "name": "",
          "type": "uint256"
        }
      ],
      "stateMutability": "view",
      "type": "function"
    },
    {
      "inputs": [],
      "name": "DELEGATION_WITH_SIG_TYPEHASH",
      "outputs": [
        {
          "internalType": "bytes32",
          "name": "",
          "type": "bytes32"
        }
      ],
      "stateMutability": "view",
      "type": "function"
    },
    {
      "inputs": [],
      "name": "DOMAIN_SEPARATOR",
      "outputs": [
        {
          "internalType": "bytes32",
          "name": "",
          "type": "bytes32"
        }
      ],
      "stateMutability": "view",
      "type": "function"
    },
    {
      "inputs": [],
      "name": "EIP712_REVISION",
      "outputs": [
        {
          "internalType": "bytes",
          "name": "",
          "type": "bytes"
        }
      ],
      "stateMutability": "view",
      "type": "function"
    },
    {
      "inputs": [],
      "name": "POOL",
      "outputs": [
        {
          "internalType": "contract IPool",
          "name": "",
          "type": "address"
        }
      ],
      "stateMutability": "view",
      "type": "function"
    },
    {
      "inputs": [],
      "name": "UNDERLYING_ASSET_ADDRESS",
      "outputs": [
        {
          "internalType": "address",
          "name": "",
          "type": "address"
        }
      ],
      "stateMutability": "view",
      "type": "function"
    },
    {
      "inputs": [
        {
          "internalType": "address",
          "name": "",
          "type": "address"
        },
        {
          "internalType": "address",
          "name": "",
          "type": "address"
        }
      ],
      "name": "allowance",
      "outputs": [
        {
          "internalType": "uint256",
          "name": "",
          "type": "uint256"
        }
      ],
      "stateMutability": "view",
      "type": "function"
    },
    {
      "inputs": [
        {
          "internalType": "address",
          "name": "",
          "type": "address"
        },
        {
          "internalType": "uint256",
          "name": "",
          "type": "uint256"
        }
      ],
      "name": "approve",
      "outputs": [
        {
          "internalType": "bool",
          "name": "",
          "type": "bool"
        }
      ],
      "stateMutability": "nonpayable",
      "type": "function"
    },
    {
      "inputs": [
        {
          "internalType": "address",
          "name": "delegatee",
          "type": "address"
        },
        {
          "internalType": "uint256",
          "name": "amount",
          "type": "uint256"
        }
      ],
      "name": "approveDelegation",
      "outputs": [],
      "stateMutability": "nonpayable",
      "type": "function"
    },
    {
      "inputs": [
        {
          "internalType": "address",
          "name": "user",
          "type": "address"
        }
      ],
      "name": "balanceOf",
      "outputs": [
        {
          "internalType": "uint256",
          "name": "",
          "type": "uint256"
        }
      ],
      "stateMutability": "view",
      "type": "function"
    },
    {
      "inputs": [
        {
          "internalType": "address",
          "name": "fromUser",
          "type": "address"
        },
        {
          "internalType": "address",
          "name": "toUser",
          "type": "address"
        }
      ],
      "name": "borrowAllowance",
      "outputs": [
        {
          "internalType": "uint256",
          "name": "",
          "type": "uint256"
        }
      ],
      "stateMutability": "view",
      "type": "function"
    },
    {
      "inputs": [
        {
          "internalType": "address",
          "name": "from",
          "type": "address"
        },
        {
          "internalType": "uint256",
          "name": "amount",
          "type": "uint256"
        },
        {
          "internalType": "uint256",
          "name": "index",
          "type": "uint256"
        }
      ],
      "name": "burn",
      "outputs": [
        {
          "internalType": "uint256",
          "name": "",
          "type": "uint256"
        }
      ],
      "stateMutability": "nonpayable",
      "type": "function"
    },
    {
      "inputs": [],
      "name": "decimals",
      "outputs": [
        {
          "internalType": "uint8",
          "name": "",
          "type": "uint8"
        }
      ],
      "stateMutability": "view",
      "type": "function"
    },
    {
      "inputs": [
        {
          "internalType": "address",
          "name": "",
          "type": "address"
        },
        {
          "internalType": "uint256",
          "name": "",
          "type": "uint256"
        }
      ],
      "name": "decreaseAllowance",
      "outputs": [
        {
          "internalType": "bool",
          "name": "",
          "type": "bool"
        }
      ],
      "stateMutability": "nonpayable",
      "type": "function"
    },
    {
      "inputs": [
        {
          "internalType": "address",
          "name": "user",
          "type": "address"
        },
        {
          "internalType": "uint256",
          "name": "amount",
          "type": "uint256"
        }
      ],
      "name": "decreaseBalanceFromInterest",
      "outputs": [],
      "stateMutability": "nonpayable",
      "type": "function"
    },
    {
      "inputs": [
        {
          "internalType": "address",
          "name": "delegator",
          "type": "address"
        },
        {
          "internalType": "address",
          "name": "delegatee",
          "type": "address"
        },
        {
          "internalType": "uint256",
          "name": "value",
          "type": "uint256"
        },
        {
          "internalType": "uint256",
          "name": "deadline",
          "type": "uint256"
        },
        {
          "internalType": "uint8",
          "name": "v",
          "type": "uint8"
        },
        {
          "internalType": "bytes32",
          "name": "r",
          "type": "bytes32"
        },
        {
          "internalType": "bytes32",
          "name": "s",
          "type": "bytes32"
        }
      ],
      "name": "delegationWithSig",
      "outputs": [],
      "stateMutability": "nonpayable",
      "type": "function"
    },
    {
      "inputs": [],
      "name": "getAToken",
      "outputs": [
        {
          "internalType": "address",
          "name": "",
          "type": "address"
        }
      ],
      "stateMutability": "view",
      "type": "function"
    },
    {
      "inputs": [
        {
          "internalType": "address",
          "name": "user",
          "type": "address"
        }
      ],
      "name": "getBalanceFromInterest",
      "outputs": [
        {
          "internalType": "uint256",
          "name": "",
          "type": "uint256"
        }
      ],
      "stateMutability": "view",
      "type": "function"
    },
    {
      "inputs": [
        {
          "internalType": "address",
          "name": "user",
          "type": "address"
        }
      ],
      "name": "getDiscountPercent",
      "outputs": [
        {
          "internalType": "uint256",
          "name": "",
          "type": "uint256"
        }
      ],
      "stateMutability": "view",
      "type": "function"
    },
    {
      "inputs": [],
      "name": "getDiscountRateStrategy",
      "outputs": [
        {
          "internalType": "address",
          "name": "",
          "type": "address"
        }
      ],
      "stateMutability": "view",
      "type": "function"
    },
    {
      "inputs": [],
      "name": "getDiscountToken",
      "outputs": [
        {
          "internalType": "address",
          "name": "",
          "type": "address"
        }
      ],
      "stateMutability": "view",
      "type": "function"
    },
    {
      "inputs": [],
      "name": "getIncentivesController",
      "outputs": [
        {
          "internalType": "contract IAaveIncentivesController",
          "name": "",
          "type": "address"
        }
      ],
      "stateMutability": "view",
      "type": "function"
    },
    {
      "inputs": [
        {
          "internalType": "address",
          "name": "user",
          "type": "address"
        }
      ],
      "name": "getPreviousIndex",
      "outputs": [
        {
          "internalType": "uint256",
          "name": "",
          "type": "uint256"
        }
      ],
      "stateMutability": "view",
      "type": "function"
    },
    {
      "inputs": [
        {
          "internalType": "address",
          "name": "user",
          "type": "address"
        }
      ],
      "name": "getScaledUserBalanceAndSupply",
      "outputs": [
        {
          "internalType": "uint256",
          "name": "",
          "type": "uint256"
        },
        {
          "internalType": "uint256",
          "name": "",
          "type": "uint256"
        }
      ],
      "stateMutability": "view",
      "type": "function"
    },
    {
      "inputs": [
        {
          "internalType": "address",
          "name": "",
          "type": "address"
        },
        {
          "internalType": "uint256",
          "name": "",
          "type": "uint256"
        }
      ],
      "name": "increaseAllowance",
      "outputs": [
        {
          "internalType": "bool",
          "name": "",
          "type": "bool"
        }
      ],
      "stateMutability": "nonpayable",
      "type": "function"
    },
    {
      "inputs": [
        {
          "internalType": "contract IPool",
          "name": "initializingPool",
          "type": "address"
        },
        {
          "internalType": "address",
          "name": "underlyingAsset",
          "type": "address"
        },
        {
          "internalType": "contract IAaveIncentivesController",
          "name": "incentivesController",
          "type": "address"
        },
        {
          "internalType": "uint8",
          "name": "debtTokenDecimals",
          "type": "uint8"
        },
        {
          "internalType": "string",
          "name": "debtTokenName",
          "type": "string"
        },
        {
          "internalType": "string",
          "name": "debtTokenSymbol",
          "type": "string"
        },
        {
          "internalType": "bytes",
          "name": "params",
          "type": "bytes"
        }
      ],
      "name": "initialize",
      "outputs": [],
      "stateMutability": "nonpayable",
      "type": "function"
    },
    {
      "inputs": [
        {
          "internalType": "address",
          "name": "user",
          "type": "address"
        },
        {
          "internalType": "address",
          "name": "onBehalfOf",
          "type": "address"
        },
        {
          "internalType": "uint256",
          "name": "amount",
          "type": "uint256"
        },
        {
          "internalType": "uint256",
          "name": "index",
          "type": "uint256"
        }
      ],
      "name": "mint",
      "outputs": [
        {
          "internalType": "bool",
          "name": "",
          "type": "bool"
        },
        {
          "internalType": "uint256",
          "name": "",
          "type": "uint256"
        }
      ],
      "stateMutability": "nonpayable",
      "type": "function"
    },
    {
      "inputs": [],
      "name": "name",
      "outputs": [
        {
          "internalType": "string",
          "name": "",
          "type": "string"
        }
      ],
      "stateMutability": "view",
      "type": "function"
    },
    {
      "inputs": [
        {
          "internalType": "address",
          "name": "owner",
          "type": "address"
        }
      ],
      "name": "nonces",
      "outputs": [
        {
          "internalType": "uint256",
          "name": "",
          "type": "uint256"
        }
      ],
      "stateMutability": "view",
      "type": "function"
    },
    {
      "inputs": [
        {
          "internalType": "address",
          "name": "user",
          "type": "address"
        }
      ],
      "name": "rebalanceUserDiscountPercent",
      "outputs": [],
      "stateMutability": "nonpayable",
      "type": "function"
    },
    {
      "inputs": [
        {
          "internalType": "address",
          "name": "user",
          "type": "address"
        }
      ],
      "name": "scaledBalanceOf",
      "outputs": [
        {
          "internalType": "uint256",
          "name": "",
          "type": "uint256"
        }
      ],
      "stateMutability": "view",
      "type": "function"
    },
    {
      "inputs": [],
      "name": "scaledTotalSupply",
      "outputs": [
        {
          "internalType": "uint256",
          "name": "",
          "type": "uint256"
        }
      ],
      "stateMutability": "view",
      "type": "function"
    },
    {
      "inputs": [
        {
          "internalType": "address",
          "name": "ghoAToken",
          "type": "address"
        }
      ],
      "name": "setAToken",
      "outputs": [],
      "stateMutability": "nonpayable",
      "type": "function"
    },
    {
      "inputs": [
        {
          "internalType": "contract IAaveIncentivesController",
          "name": "controller",
          "type": "address"
        }
      ],
      "name": "setIncentivesController",
      "outputs": [],
      "stateMutability": "nonpayable",
      "type": "function"
    },
    {
      "inputs": [],
      "name": "symbol",
      "outputs": [
        {
          "internalType": "string",
          "name": "",
          "type": "string"
        }
      ],
      "stateMutability": "view",
      "type": "function"
    },
    {
      "inputs": [],
      "name": "totalSupply",
      "outputs": [
        {
          "internalType": "uint256",
          "name": "",
          "type": "uint256"
        }
      ],
      "stateMutability": "view",
      "type": "function"
    },
    {
      "inputs": [
        {
          "internalType": "address",
          "name": "",
          "type": "address"
        },
        {
          "internalType": "uint256",
          "name": "",
          "type": "uint256"
        }
      ],
      "name": "transfer",
      "outputs": [
        {
          "internalType": "bool",
          "name": "",
          "type": "bool"
        }
      ],
      "stateMutability": "nonpayable",
      "type": "function"
    },
    {
      "inputs": [
        {
          "internalType": "address",
          "name": "",
          "type": "address"
        },
        {
          "internalType": "address",
          "name": "",
          "type": "address"
        },
        {
          "internalType": "uint256",
          "name": "",
          "type": "uint256"
        }
      ],
      "name": "transferFrom",
      "outputs": [
        {
          "internalType": "bool",
          "name": "",
          "type": "bool"
        }
      ],
      "stateMutability": "nonpayable",
      "type": "function"
    },
    {
      "inputs": [
        {
          "internalType": "address",
          "name": "sender",
          "type": "address"
        },
        {
          "internalType": "address",
          "name": "recipient",
          "type": "address"
        },
        {
          "internalType": "uint256",
          "name": "senderDiscountTokenBalance",
          "type": "uint256"
        },
        {
          "internalType": "uint256",
          "name": "recipientDiscountTokenBalance",
          "type": "uint256"
        },
        {
          "internalType": "uint256",
          "name": "amount",
          "type": "uint256"
        }
      ],
      "name": "updateDiscountDistribution",
      "outputs": [],
      "stateMutability": "nonpayable",
      "type": "function"
    },
    {
      "inputs": [
        {
          "internalType": "address",
          "name": "newDiscountRateStrategy",
          "type": "address"
        }
      ],
      "name": "updateDiscountRateStrategy",
      "outputs": [],
      "stateMutability": "nonpayable",
      "type": "function"
    },
    {
      "inputs": [
        {
          "internalType": "address",
          "name": "newDiscountToken",
          "type": "address"
        }
      ],
      "name": "updateDiscountToken",
      "outputs": [],
      "stateMutability": "nonpayable",
      "type": "function"
    }
  ],
  "transactionHash": "0x0a187b66505ca59b40d720b5d969d1694938ae77d27bb4c96d9e19a50befacdc",
  "args": [
    "0x3e9b7D063f0bC642207044360aE91F05F398B793"
  ],
  "numDeployments": 1,
  "solcInputHash": "2b6fe4af59ecc015f72062d04df7b7d6",
  "bytecode": "0x60e0604052600080553480156200001557600080fd5b506040516200305938038062003059833981016040819052620000389162000245565b806040518060400160405280601c81526020017f47484f5f5641524941424c455f444542545f544f4b454e5f494d504c000000008152506040518060400160405280601c81526020017f47484f5f5641524941424c455f444542545f544f4b454e5f494d504c00000000815250600083838383838383834660808181525050836001600160a01b0316630542975c6040518163ffffffff1660e01b8152600401602060405180830381865afa158015620000f6573d6000803e3d6000fd5b505050506040513d601f19601f820116820180604052508101906200011c919062000245565b6001600160a01b031660a05282516200013d90603b90602086019062000186565b5081516200015390603c90602085019062000186565b50603d805460ff191660ff9290921691909117905550506001600160a01b031660c05250620002a9975050505050505050565b82805462000194906200026c565b90600052602060002090601f016020900481019282620001b8576000855562000203565b82601f10620001d357805160ff191683800117855562000203565b8280016001018555821562000203579182015b8281111562000203578251825591602001919060010190620001e6565b506200021192915062000215565b5090565b5b8082111562000211576000815560010162000216565b6001600160a01b03811681146200024257600080fd5b50565b6000602082840312156200025857600080fd5b815162000265816200022c565b9392505050565b600181811c908216806200028157607f821691505b60208210811415620002a357634e487b7160e01b600052602260045260246000fd5b50919050565b60805160a05160c051612d3362000326600039600081816103fb01528181610a2501528181610d5c015281816111fc0152818161133b0152818161152f0152818161166b0152818161173a0152611ad8015260008181610aa501528181610fd8015281816117cd015261196c01526000610c570152612d336000f3fe608060405234801561001057600080fd5b50600436106102535760003560e01c80637ccf1a1511610146578063b9a7b622116100c3578063e075398611610087578063e075398614610584578063e655dbd8146105bd578063efe3de14146105d0578063f3bfc738146105e1578063f5298aca14610608578063fe49b7941461061b57600080fd5b8063b9a7b62214610535578063c04a8a101461053d578063c222ec8a14610550578063ce79f38214610563578063dd62ed3e1461057657600080fd5b8063a9059cbb1161010a578063a9059cbb14610276578063b16a19de146104e1578063b1bf962d146104f2578063b29c55bc146104fa578063b3f1c93d1461050b57600080fd5b80637ccf1a151461046b5780637ecebe001461049d5780637f3c4a66146104c657806395d89b41146104d9578063a457c2d71461027657600080fd5b80633644e515116101d45780636c53272b116101985780636c53272b146103af57806370a08231146103e35780637535d246146103f657806375d2641314610435578063781603761461044b57600080fd5b80633644e5151461034857806339509351146102765780635b9c4cf1146103505780635f09d84c146103635780636bd76d241461037657600080fd5b806318160ddd1161021b57806318160ddd146102e95780631c98cfb7146102ff5780631da24f3e1461031257806323b872dd14610325578063313ce5671461033357600080fd5b806306fdde0314610258578063095ea7b3146102765780630afbcdc9146102995780630b52d558146102c15780630d44dedc146102d6575b600080fd5b61026061062c565b60405161026d91906126da565b60405180910390f35b61028961028436600461271c565b6106be565b604051901515815260200161026d565b6102ac6102a7366004612748565b6106f9565b6040805192835260208301919091520161026d565b6102d46102cf366004612776565b610711565b005b6102d46102e436600461271c565b61093c565b6102f16109fc565b60405190815260200161026d565b6102d461030d366004612748565b610aa1565b6102f1610320366004612748565b610c42565b6102896102843660046127e4565b603d5460405160ff909116815260200161026d565b6102f1610c53565b6102d461035e366004612825565b610c8c565b6102d4610371366004612748565b610fd4565b6102f1610384366004612876565b6001600160a01b03918216600090815260366020908152604080832093909416825291909152205490565b6102f16103bd366004612748565b6001600160a01b0316600090815260416020526040902054600160801b900461ffff1690565b6102f16103f1366004612748565b6111bb565b61041d7f000000000000000000000000000000000000000000000000000000000000000081565b6040516001600160a01b03909116815260200161026d565b603d5461010090046001600160a01b031661041d565b610260604051806040016040528060018152602001603160f81b81525081565b6102f1610479366004612748565b6001600160a01b03166000908152604160205260409020546001600160801b031690565b6102f16104ab366004612748565b6001600160a01b031660009081526034602052604090205490565b6102d46104d4366004612748565b611316565b6102606114f4565b6037546001600160a01b031661041d565b6102f1611503565b603e546001600160a01b031661041d565b61051e6105193660046128af565b61150e565b60408051921515835260208301919091520161026d565b6102f1600181565b6102d461054b36600461271c565b6115bb565b6102d461055e3660046129e1565b6115ca565b6102d4610571366004612748565b6117c9565b6102f1610284366004612876565b6102f1610592366004612748565b6001600160a01b0316600090815260386020526040902054600160801b90046001600160801b031690565b6102d46105cb366004612748565b611968565b603f546001600160a01b031661041d565b6102f17f323db0410fecc107e39e2af5908671f4c8d106123b35a51501bb805c5fa36aa081565b6102f1610616366004612ab6565b611ab9565b6040546001600160a01b031661041d565b6060603b805461063b90612aeb565b80601f016020809104026020016040519081016040528092919081815260200182805461066790612aeb565b80156106b45780601f10610689576101008083540402835291602001916106b4565b820191906000526020600020905b81548152906001019060200180831161069757829003601f168201915b5050505050905090565b6040805180820182526002815261038360f41b6020820152905162461bcd60e51b81526000916106f0916004016126da565b60405180910390fd5b60008061070583611b3c565b603a5491509150915091565b604080518082019091526002815261373760f01b60208201526001600160a01b0388166107515760405162461bcd60e51b81526004016106f091906126da565b50834211156040518060400160405280600281526020016106e760f31b8152509061078f5760405162461bcd60e51b81526004016106f091906126da565b506001600160a01b038716600090815260346020526040812054906107b2610c53565b604080517f323db0410fecc107e39e2af5908671f4c8d106123b35a51501bb805c5fa36aa060208201526001600160a01b038b1691810191909152606081018990526080810184905260a0810188905260c0016040516020818303038152906040528051906020012060405160200161084292919061190160f01b81526002810192909252602282015260420190565b60408051601f1981840301815282825280516020918201206000845290830180835281905260ff8816918301919091526060820186905260808201859052915060019060a0016020604051602081039080840390855afa1580156108aa573d6000803e3d6000fd5b505050602060405103516001600160a01b0316896001600160a01b03161460405180604001604052806002815260200161373960f01b815250906109015760405162461bcd60e51b81526004016106f091906126da565b5061090d826001612b3c565b6001600160a01b038a16600090815260346020526040902055610931898989611b60565b505050505050505050565b603e546001600160a01b0316331461098b5760405162461bcd60e51b815260206004820152601260248201527121a0a62622a92fa727aa2fa0afaa27a5a2a760711b60448201526064016106f0565b6001600160a01b0382166000908152604160205260409020546109c1906109bc9083906001600160801b0316612b54565b611bca565b6001600160a01b0392909216600090815260416020526040902080546001600160801b0319166001600160801b039093169290921790915550565b60375460405163386497fd60e01b81526001600160a01b039182166004820152600091610a9c917f00000000000000000000000000000000000000000000000000000000000000009091169063386497fd90602401602060405180830381865afa158015610a6e573d6000803e3d6000fd5b505050506040513d601f19601f82011682018060405250810190610a929190612b6b565b603a545b90611c37565b905090565b60007f00000000000000000000000000000000000000000000000000000000000000006001600160a01b031663707cd7166040518163ffffffff1660e01b8152600401602060405180830381865afa158015610b01573d6000803e3d6000fd5b505050506040513d601f19601f82011682018060405250810190610b259190612b84565b604051637be53ca160e01b81523360048201529091506001600160a01b03821690637be53ca190602401602060405180830381865afa158015610b6c573d6000803e3d6000fd5b505050506040513d601f19601f82011682018060405250810190610b909190612ba1565b604051806040016040528060018152602001603160f81b81525090610bc85760405162461bcd60e51b81526004016106f091906126da565b506001600160a01b038216610bef5760405162461bcd60e51b81526004016106f090612bc3565b603f80546001600160a01b038481166001600160a01b0319831681179093556040519116919082907f6b489e1dbfbe36f55c511c098bcc9d92fec7f04f74ceb75018697ab68f7d352990600090a3505050565b6000610c4d82611b3c565b92915050565b60007f0000000000000000000000000000000000000000000000000000000000000000461415610c84575060355490565b610a9c611c7b565b603f546001600160a01b03163314610ce65760405162461bcd60e51b815260206004820152601960248201527f43414c4c45525f4e4f545f444953434f554e545f544f4b454e0000000000000060448201526064016106f0565b836001600160a01b0316856001600160a01b03161415610d0557610fcd565b6000610d1086611b3c565b90506000610d1d86611b3c565b905081158015610d2b575080155b15610d37575050610fcd565b60375460405163386497fd60e01b81526001600160a01b0391821660048201526000917f0000000000000000000000000000000000000000000000000000000000000000169063386497fd90602401602060405180830381865afa158015610da3573d6000803e3d6000fd5b505050506040513d601f19601f82011682018060405250810190610dc79190612b6b565b90506000808415610ecc576001600160a01b038a16600090815260416020526040902054610e04908b908790600160801b900461ffff1686611d24565b9092509050610e1b8a610e1683611bca565b611e45565b610e5f8a610e2c85610a968e611b3c565b610e36898c612b54565b6001600160a01b038e16600090815260416020526040902054600160801b900461ffff16611f3e565b6040518281526001600160a01b038b1690600090600080516020612cde8339815191529060200160405180910390a360408051838152602081018490529081018490526001600160a01b038b1690600090600080516020612cbe8339815191529060600160405180910390a35b8315610fc7576001600160a01b038916600090815260416020526040902054610f04908a908690600160801b900461ffff1686611d24565b9092509050610f1689610e1683611bca565b610f5a89610f2785610a968d611b3c565b610f31898b612b3c565b6001600160a01b038d16600090815260416020526040902054600160801b900461ffff16611f3e565b6040518281526001600160a01b038a1690600090600080516020612cde8339815191529060200160405180910390a360408051838152602081018490529081018490526001600160a01b038a1690600090600080516020612cbe8339815191529060600160405180910390a35b50505050505b5050505050565b60007f00000000000000000000000000000000000000000000000000000000000000006001600160a01b031663707cd7166040518163ffffffff1660e01b8152600401602060405180830381865afa158015611034573d6000803e3d6000fd5b505050506040513d601f19601f820116820180604052508101906110589190612b84565b604051637be53ca160e01b81523360048201529091506001600160a01b03821690637be53ca190602401602060405180830381865afa15801561109f573d6000803e3d6000fd5b505050506040513d601f19601f820116820180604052508101906110c39190612ba1565b604051806040016040528060018152602001603160f81b815250906110fb5760405162461bcd60e51b81526004016106f091906126da565b50603e546001600160a01b03161561114a5760405162461bcd60e51b8152602060048201526012602482015271105513d2d15397d053149150511657d4d15560721b60448201526064016106f0565b6001600160a01b0382166111705760405162461bcd60e51b81526004016106f090612bc3565b603e80546001600160a01b0319166001600160a01b0384169081179091556040517f07cba78d3a9bb0cf2cb0e30140558e278b50a2ba6da2e13369a0d9113034548b90600090a25050565b6000806111c783611b3c565b9050806111d75750600092915050565b60375460405163386497fd60e01b81526001600160a01b0391821660048201526000917f0000000000000000000000000000000000000000000000000000000000000000169063386497fd90602401602060405180830381865afa158015611243573d6000803e3d6000fd5b505050506040513d601f19601f820116820180604052508101906112679190612b6b565b6001600160a01b038516600090815260386020526040812054919250600160801b9091046001600160801b03169061129f8484611c37565b9050818314156112b25795945050505050565b6001600160a01b038616600090815260416020526040902054600160801b900461ffff16801561130c5760006112e88685611c37565b6112f29084612b54565b90506112fe8183612039565b6113089084612b54565b9250505b5095945050505050565b60375460405163386497fd60e01b81526001600160a01b0391821660048201526000917f0000000000000000000000000000000000000000000000000000000000000000169063386497fd90602401602060405180830381865afa158015611382573d6000803e3d6000fd5b505050506040513d601f19601f820116820180604052508101906113a69190612b6b565b905060006113b383611b3c565b6001600160a01b038416600090815260416020526040812054919250600160801b90910461ffff1690806113e986858588611d24565b915091506113fa86610e1683611bca565b6114808661140b87610a968a611b3c565b603f546040516370a0823160e01b81526001600160a01b038b81166004830152909116906370a08231906024015b602060405180830381865afa158015611456573d6000803e3d6000fd5b505050506040513d601f19601f8201168201806040525081019061147a9190612b6b565b86611f3e565b6040518281526001600160a01b03871690600090600080516020612cde8339815191529060200160405180910390a360408051838152602081018490529081018690526001600160a01b03871690600090600080516020612cbe8339815191529060600160405180910390a3505050505050565b6060603c805461063b90612aeb565b6000610a9c603a5490565b604080518082019091526002815261323360f01b60208201526000908190337f00000000000000000000000000000000000000000000000000000000000000006001600160a01b0316146115755760405162461bcd60e51b81526004016106f091906126da565b50846001600160a01b0316866001600160a01b03161461159a5761159a85878661205f565b6115a686868686612105565b6115ae611503565b9150915094509492505050565b6115c6338383611b60565b5050565b6001805460ff16806115db5750303b155b806115e7575060005481115b61164a5760405162461bcd60e51b815260206004820152602e60248201527f436f6e747261637420696e7374616e63652068617320616c726561647920626560448201526d195b881a5b9a5d1a585b1a5e995960921b60648201526084016106f0565b60015460ff16158015611669576001805460ff19168117905560008290555b7f00000000000000000000000000000000000000000000000000000000000000006001600160a01b03168a6001600160a01b03161460405180604001604052806002815260200161383760f01b815250906116d75760405162461bcd60e51b81526004016106f091906126da565b506116e1866122a3565b6116ea856122b6565b603d8054603780546001600160a01b038d81166001600160a01b0319909216919091179091558a16610100026001600160a81b031990911660ff8a1617179055611732611c7b565b6035819055507f00000000000000000000000000000000000000000000000000000000000000006001600160a01b0316896001600160a01b03167f40251fbfb6656cfa65a00d7879029fec1fad21d28fdcff2f4f68f52795b74f2c8a8a8a8a8a8a6040516117a596959493929190612bf3565b60405180910390a38015610fc7576001805460ff1916905550505050505050505050565b60007f00000000000000000000000000000000000000000000000000000000000000006001600160a01b031663707cd7166040518163ffffffff1660e01b8152600401602060405180830381865afa158015611829573d6000803e3d6000fd5b505050506040513d601f19601f8201168201806040525081019061184d9190612b84565b604051637be53ca160e01b81523360048201529091506001600160a01b03821690637be53ca190602401602060405180830381865afa158015611894573d6000803e3d6000fd5b505050506040513d601f19601f820116820180604052508101906118b89190612ba1565b604051806040016040528060018152602001603160f81b815250906118f05760405162461bcd60e51b81526004016106f091906126da565b506001600160a01b0382166119175760405162461bcd60e51b81526004016106f090612bc3565b604080546001600160a01b038481166001600160a01b031983168117845592519116919082907f194bd59f47b230edccccc2be58b92dde3a5dadd835751a621af59006928bccef90600090a3505050565b60007f00000000000000000000000000000000000000000000000000000000000000006001600160a01b031663707cd7166040518163ffffffff1660e01b8152600401602060405180830381865afa1580156119c8573d6000803e3d6000fd5b505050506040513d601f19601f820116820180604052508101906119ec9190612b84565b604051637be53ca160e01b81523360048201529091506001600160a01b03821690637be53ca190602401602060405180830381865afa158015611a33573d6000803e3d6000fd5b505050506040513d601f19601f82011682018060405250810190611a579190612ba1565b604051806040016040528060018152602001603160f81b81525090611a8f5760405162461bcd60e51b81526004016106f091906126da565b5050603d80546001600160a01b0390921661010002610100600160a81b0319909216919091179055565b604080518082019091526002815261323360f01b6020820152600090337f00000000000000000000000000000000000000000000000000000000000000006001600160a01b031614611b1e5760405162461bcd60e51b81526004016106f091906126da565b50611b2c84600085856122c9565b611b34611503565b949350505050565b6001600160a01b03166000908152603860205260409020546001600160801b031690565b6001600160a01b0383811660008181526036602090815260408083208786168085529083529281902086905560375490518681529416939192917fda919360433220e13b51e8c211e490d148e61a3bd53de8c097194e458b97f3e1910160405180910390a4505050565b60006001600160801b03821115611c335760405162461bcd60e51b815260206004820152602760248201527f53616665436173743a2076616c756520646f65736e27742066697420696e20316044820152663238206269747360c81b60648201526084016106f0565b5090565b600081156b019d971e4fe8401e740000001983900484111517611c5957600080fd5b506b033b2e3c9fd0803ce800000091026b019d971e4fe8401e74000000010490565b60007f8b73c3c69bb8fe3d512ecc4cf759cc79239f7b179b0ffacaa9a75d522b39400f611ca661250c565b805160209182012060408051808201825260018152603160f81b90840152805192830193909352918101919091527fc89efdaa54c0f20c7adf612882df0950f5a951637e0307cdcb4c672f298b8bc660608201524660808201523060a082015260c00160405160208183030381529060405280519060200120905090565b6001600160a01b03841660009081526038602052604081205481908190611d5c908790600160801b90046001600160801b0316611c37565b611d668786611c37565b611d709190612b54565b905060008115801590611d8257508515155b15611daf576000611d938388612039565b9050611d9f8187612516565b9150611dab8184612b54565b9250505b611db885611bca565b6001600160a01b038916600090815260386020908152604080832080546001600160801b03958616600160801b029086161790556041909152902054611e03916109bc911684612b3c565b6001600160a01b0398909816600090815260416020526040902080546001600160801b0319166001600160801b03999099169890981790975596945050505050565b603a54611e5b6001600160801b03831682612b54565b603a556001600160a01b0383166000908152603860205260409020546001600160801b0316611e8a8382612c6a565b6001600160a01b03858116600090815260386020526040902080546001600160801b0319166001600160801b039390931692909217909155603d546101009004168015610fcd576040516318c39f1760e11b81526001600160a01b038681166004830152602482018590526001600160801b03841660448301528216906331873e2e90606401600060405180830381600087803b158015611f2a57600080fd5b505af1158015610931573d6000803e3d6000fd5b6040805490516393adbec560e01b815260048101859052602481018490526000916001600160a01b0316906393adbec590604401602060405180830381865afa158015611f8f573d6000803e3d6000fd5b505050506040513d601f19601f82011682018060405250810190611fb39190612b6b565b9050808214610fcd57611fc581612555565b6001600160a01b038616600081815260416020908152604091829020805461ffff95909516600160801b0261ffff60801b19909516949094179093555184815283927f74ab9665e7c36c29ddb78ef88a3e2eac73d35b8b16de7bc573e313e320104956910160405180910390a35050505050565b60008115611388198390048411151761205157600080fd5b506127109102611388010490565b6001600160a01b038084166000908152603660209081526040808320938616835292905290812054612092908390612b54565b6001600160a01b03808616600081815260366020908152604080832089861680855292529182902085905560375491519495509216927fda919360433220e13b51e8c211e490d148e61a3bd53de8c097194e458b97f3e1906120f79086815260200190565b60405180910390a450505050565b6000806121128484612516565b6040805180820190915260028152610c8d60f21b60208201529091508161214c5760405162461bcd60e51b81526004016106f091906126da565b50600061215886611b3c565b6001600160a01b038716600090815260416020526040812054919250600160801b90910461ffff16908061218e8985858a611d24565b91509150808511156121b5576121b0896121ab6109bc8489612b54565b6125b8565b6121c6565b6121c689610e166109bc8885612b54565b612209896121d789610a968d611b3c565b603f546040516370a0823160e01b81526001600160a01b038e81166004830152909116906370a0823190602401611439565b6000612215838a612b3c565b9050896001600160a01b031660006001600160a01b0316600080516020612cde8339815191528360405161224b91815260200190565b60405180910390a360408051828152602081018590529081018990526001600160a01b03808c1691908d1690600080516020612cbe8339815191529060600160405180910390a35060019a9950505050505050505050565b80516115c690603b9060208401906125fd565b80516115c690603c9060208401906125fd565b60006122d58383612516565b604080518082019091526002815261323560f01b60208201529091508161230f5760405162461bcd60e51b81526004016106f091906126da565b50600061231b866111bb565b9050600061232887611b3c565b6001600160a01b038816600090815260416020526040812054919250600160801b90910461ffff16908061235e8a85858a611d24565b915091508488141561237c576123778a610e1686611bca565b61238d565b61238d8a610e166109bc848a612b3c565b6123d08a61239e89610a968e611b3c565b603f546040516370a0823160e01b81526001600160a01b038f81166004830152909116906370a0823190602401611439565b878211156124645760006123e48984612b54565b90508a6001600160a01b031660006001600160a01b0316600080516020612cde8339815191528360405161241a91815260200190565b60405180910390a360408051828152602081018590529081018990526001600160a01b038c16908190600080516020612cbe8339815191529060600160405180910390a350610fc7565b6000612470838a612b54565b905060006001600160a01b03168b6001600160a01b0316600080516020612cde833981519152836040516124a691815260200190565b60405180910390a360408051828152602081018590529081018990526001600160a01b03808c1691908d16907f4cf25bc1d991c17529c25213d3cc0cda295eeaad5f13f361969b12ea48015f909060600160405180910390a35050505050505050505050565b6060610a9c61062c565b600081156b033b2e3c9fd0803ce80000006002840419048411171561253a57600080fd5b506b033b2e3c9fd0803ce80000009190910260028204010490565b600061ffff821115611c335760405162461bcd60e51b815260206004820152602660248201527f53616665436173743a2076616c756520646f65736e27742066697420696e203160448201526536206269747360d01b60648201526084016106f0565b603a546125ce6001600160801b03831682612b3c565b603a556001600160a01b0383166000908152603860205260409020546001600160801b0316611e8a8382612c92565b82805461260990612aeb565b90600052602060002090601f01602090048101928261262b5760008555612671565b82601f1061264457805160ff1916838001178555612671565b82800160010185558215612671579182015b82811115612671578251825591602001919060010190612656565b50611c339291505b80821115611c335760008155600101612679565b6000815180845260005b818110156126b357602081850181015186830182015201612697565b818111156126c5576000602083870101525b50601f01601f19169290920160200192915050565b6020815260006126ed602083018461268d565b9392505050565b6001600160a01b038116811461270957600080fd5b50565b8035612717816126f4565b919050565b6000806040838503121561272f57600080fd5b823561273a816126f4565b946020939093013593505050565b60006020828403121561275a57600080fd5b81356126ed816126f4565b803560ff8116811461271757600080fd5b600080600080600080600060e0888a03121561279157600080fd5b873561279c816126f4565b965060208801356127ac816126f4565b955060408801359450606088013593506127c860808901612765565b925060a0880135915060c0880135905092959891949750929550565b6000806000606084860312156127f957600080fd5b8335612804816126f4565b92506020840135612814816126f4565b929592945050506040919091013590565b600080600080600060a0868803121561283d57600080fd5b8535612848816126f4565b94506020860135612858816126f4565b94979496505050506040830135926060810135926080909101359150565b6000806040838503121561288957600080fd5b8235612894816126f4565b915060208301356128a4816126f4565b809150509250929050565b600080600080608085870312156128c557600080fd5b84356128d0816126f4565b935060208501356128e0816126f4565b93969395505050506040820135916060013590565b634e487b7160e01b600052604160045260246000fd5b600082601f83011261291c57600080fd5b813567ffffffffffffffff80821115612937576129376128f5565b604051601f8301601f19908116603f0116810190828211818310171561295f5761295f6128f5565b8160405283815286602085880101111561297857600080fd5b836020870160208301376000602085830101528094505050505092915050565b60008083601f8401126129aa57600080fd5b50813567ffffffffffffffff8111156129c257600080fd5b6020830191508360208285010111156129da57600080fd5b9250929050565b60008060008060008060008060e0898b0312156129fd57600080fd5b8835612a08816126f4565b97506020890135612a18816126f4565b9650612a2660408a0161270c565b9550612a3460608a01612765565b9450608089013567ffffffffffffffff80821115612a5157600080fd5b612a5d8c838d0161290b565b955060a08b0135915080821115612a7357600080fd5b612a7f8c838d0161290b565b945060c08b0135915080821115612a9557600080fd5b50612aa28b828c01612998565b999c989b5096995094979396929594505050565b600080600060608486031215612acb57600080fd5b8335612ad6816126f4565b95602085013595506040909401359392505050565b600181811c90821680612aff57607f821691505b60208210811415612b2057634e487b7160e01b600052602260045260246000fd5b50919050565b634e487b7160e01b600052601160045260246000fd5b60008219821115612b4f57612b4f612b26565b500190565b600082821015612b6657612b66612b26565b500390565b600060208284031215612b7d57600080fd5b5051919050565b600060208284031215612b9657600080fd5b81516126ed816126f4565b600060208284031215612bb357600080fd5b815180151581146126ed57600080fd5b60208082526016908201527516915493d7d05111149154d4d7d393d517d59053125160521b604082015260600190565b6001600160a01b038716815260ff8616602082015260a060408201819052600090612c209083018761268d565b8281036060840152612c32818761268d565b90508281036080840152838152838560208301376000602085830101526020601f19601f860116820101915050979650505050505050565b60006001600160801b0383811690831681811015612c8a57612c8a612b26565b039392505050565b60006001600160801b03808316818516808303821115612cb457612cb4612b26565b0194935050505056fe458f5fa412d0f69b08dd84872b0215675cc67bc1d5b6fd93300a1c3878b86196ddf252ad1be2c89b69c2b068fc378daa952ba7f163c4a11628f55a4df523b3efa2646970667358221220546ca27176ce3f3f569a7337abbbe91281c875ce6ec2f3868deb28f2b34a64cf64736f6c634300080a0033",
  "devdoc": {
    "author": "Aave",
    "details": "Transfer and approve functionalities are disabled since its a non-transferable token",
    "kind": "dev",
    "methods": {
      "DOMAIN_SEPARATOR()": {
        "details": "Return cached value if chainId matches cache, otherwise recomputes separator",
        "returns": {
          "_0": "The domain separator of the token at current chain"
        }
      },
      "UNDERLYING_ASSET_ADDRESS()": {
        "returns": {
          "_0": "The address of the underlying asset"
        }
      },
      "approveDelegation(address,uint256)": {
        "params": {
          "amount": "The maximum amount being delegated.",
          "delegatee": "The address receiving the delegated borrowing power"
        }
      },
      "balanceOf(address)": {
        "details": "Returns the amount of tokens owned by `account`."
      },
      "borrowAllowance(address,address)": {
        "params": {
          "fromUser": "The user to giving allowance",
          "toUser": "The user to give allowance to"
        },
        "returns": {
          "_0": "The current allowance of `toUser`"
        }
      },
      "burn(address,uint256,uint256)": {
        "details": "In some instances, a burn transaction will emit a mint event if the amount to burn is less than the interest that the user accrued",
        "params": {
          "amount": "The amount getting burned",
          "from": "The address from which the debt will be burned",
          "index": "The variable debt index of the reserve"
        },
        "returns": {
          "_0": "The scaled total debt of the reserve"
        }
      },
      "constructor": {
        "details": "Constructor.",
        "params": {
          "pool": "The address of the Pool contract"
        }
      },
      "decreaseBalanceFromInterest(address,uint256)": {
        "details": "Decrease the amount of interests accumulated by the user",
        "params": {
          "amount": "The value to be decrease",
          "user": "The address of the user"
        }
      },
      "delegationWithSig(address,address,uint256,uint256,uint8,bytes32,bytes32)": {
        "params": {
          "deadline": "The deadline timestamp, type(uint256).max for max deadline",
          "delegatee": "The delegatee that can use the credit",
          "delegator": "The delegator of the credit",
          "r": "The R signature param",
          "s": "The S signature param",
          "v": "The V signature param",
          "value": "The amount to be delegated"
        }
      },
      "getAToken()": {
        "returns": {
          "_0": "The address of the GhoAToken contract"
        }
      },
      "getDiscountPercent(address)": {
        "params": {
          "user": "The address of the user"
        },
        "returns": {
          "_0": "The discount percent (expressed in bps)"
        }
      },
      "getDiscountRateStrategy()": {
        "returns": {
          "_0": "The address of DiscountRateStrategy contract"
        }
      },
      "getDiscountToken()": {
        "returns": {
          "_0": "address The address of DiscountToken"
        }
      },
      "getIncentivesController()": {
        "returns": {
          "_0": "The address of the Incentives Controller"
        }
      },
      "getPreviousIndex(address)": {
        "params": {
          "user": "The address of the user"
        },
        "returns": {
          "_0": "The last index interest was accrued to the user's balance, expressed in ray"
        }
      },
      "getScaledUserBalanceAndSupply(address)": {
        "params": {
          "user": "The address of the user"
        },
        "returns": {
          "_0": "The scaled balance of the user",
          "_1": "The scaled total supply"
        }
      },
      "initialize(address,address,address,uint8,string,string,bytes)": {
        "params": {
          "debtTokenDecimals": "The decimals of the debtToken, same as the underlying asset's",
          "debtTokenName": "The name of the token",
          "debtTokenSymbol": "The symbol of the token",
          "incentivesController": "The smart contract managing potential incentives distribution",
          "params": "A set of encoded parameters for additional initialization",
          "pool": "The pool contract that is initializing this contract",
          "underlyingAsset": "The address of the underlying asset of this aToken (E.g. WETH for aWETH)"
        }
      },
      "mint(address,address,uint256,uint256)": {
        "params": {
          "amount": "The amount of debt being minted",
          "index": "The variable debt index of the reserve",
          "onBehalfOf": "The address receiving the debt tokens",
          "user": "The address receiving the borrowed underlying, being the delegatee in case of credit delegate, or same as `onBehalfOf` otherwise"
        },
        "returns": {
          "_0": "True if the previous balance of the user is 0, false otherwise",
          "_1": "The scaled total debt of the reserve"
        }
      },
      "nonces(address)": {
        "params": {
          "owner": "The address for which the nonce is being returned"
        },
        "returns": {
          "_0": "The nonce value for the input address`"
        }
      },
      "rebalanceUserDiscountPercent(address)": {
        "params": {
          "user": "The address of the user"
        }
      },
      "scaledBalanceOf(address)": {
        "details": "The scaled balance is the sum of all the updated stored balance divided by the reserve's liquidity index at the moment of the update",
        "params": {
          "user": "The user whose balance is calculated"
        },
        "returns": {
          "_0": "The scaled balance of the user"
        }
      },
      "scaledTotalSupply()": {
        "returns": {
          "_0": "The scaled total supply"
        }
      },
      "setAToken(address)": {
        "params": {
          "ghoAToken": "The address of the GhoAToken contract"
        }
      },
      "setIncentivesController(address)": {
        "params": {
          "controller": "the new Incentives controller"
        }
      },
      "totalSupply()": {
        "details": "It does not account for active discounts of the users. The discount is deducted from the user's debt at repayment / liquidation time, so this function does always return a greater or equal value than the actual total supply.",
        "returns": {
          "_0": "The amount of tokens in existence (without accounting for active discounts on debt)"
        }
      },
      "transfer(address,uint256)": {
        "details": "Being non transferrable, the debt token does not implement any of the standard ERC20 functions for transfer and allowance."
      },
      "updateDiscountDistribution(address,address,uint256,uint256,uint256)": {
        "details": "To be executed before the token transfer happens",
        "params": {
          "amount": "The amount of discount token being transferred",
          "recipient": "The address of recipient",
          "recipientDiscountTokenBalance": "The recipient discount token balance",
          "sender": "The address of sender",
          "senderDiscountTokenBalance": "The sender discount token balance"
        }
      },
      "updateDiscountRateStrategy(address)": {
        "params": {
          "newDiscountRateStrategy": "The address of DiscountRateStrategy contract"
        }
      },
      "updateDiscountToken(address)": {
        "params": {
          "newDiscountToken": "The address of the DiscountToken contract"
        }
      }
    },
    "title": "GhoVariableDebtToken",
    "version": 1
  },
  "userdoc": {
    "kind": "user",
    "methods": {
      "DOMAIN_SEPARATOR()": {
        "notice": "Get the domain separator for the token"
      },
      "UNDERLYING_ASSET_ADDRESS()": {
        "notice": "Returns the address of the underlying asset of this debtToken (E.g. WETH for variableDebtWETH)"
      },
      "approveDelegation(address,uint256)": {
        "notice": "Delegates borrowing power to a user on the specific debt token. Delegation will still respect the liquidation constraints (even if delegated, a delegatee cannot force a delegator HF to go below 1)"
      },
      "borrowAllowance(address,address)": {
        "notice": "Returns the borrow allowance of the user"
      },
      "burn(address,uint256,uint256)": {
        "notice": "Burns user variable debt"
      },
      "delegationWithSig(address,address,uint256,uint256,uint8,bytes32,bytes32)": {
        "notice": "Delegates borrowing power to a user on the specific debt token via ERC712 signature"
      },
      "getAToken()": {
        "notice": "Returns the address of the GHO AToken"
      },
      "getDiscountPercent(address)": {
        "notice": "Returns the discount percent being applied to the debt interest of the user"
      },
      "getDiscountRateStrategy()": {
        "notice": "Returns the address of the Discount Rate Strategy"
      },
      "getDiscountToken()": {
        "notice": "Returns the address of the Discount Token"
      },
      "getIncentivesController()": {
        "notice": "Returns the address of the Incentives Controller contract"
      },
      "getPreviousIndex(address)": {
        "notice": "Returns last index interest was accrued to the user's balance"
      },
      "getScaledUserBalanceAndSupply(address)": {
        "notice": "Returns the scaled balance of the user and the scaled total supply."
      },
      "initialize(address,address,address,uint8,string,string,bytes)": {
        "notice": "Initializes the debt token."
      },
      "mint(address,address,uint256,uint256)": {
        "notice": "Mints debt token to the `onBehalfOf` address"
      },
      "nonces(address)": {
        "notice": "Returns the nonce value for address specified as parameter"
      },
      "rebalanceUserDiscountPercent(address)": {
        "notice": "Rebalances the discount percent of a user"
      },
      "scaledBalanceOf(address)": {
        "notice": "Returns the scaled balance of the user."
      },
      "scaledTotalSupply()": {
        "notice": "Returns the scaled total supply of the scaled balance token. Represents sum(debt/index)"
      },
      "setAToken(address)": {
        "notice": "Sets a reference to the GHO AToken"
      },
      "setIncentivesController(address)": {
        "notice": "Sets a new Incentives Controller"
      },
      "totalSupply()": {
        "notice": "Returns the amount of tokens in existence."
      },
      "updateDiscountDistribution(address,address,uint256,uint256,uint256)": {
        "notice": "Updates the discount percents of the users when a discount token transfer occurs"
      },
      "updateDiscountRateStrategy(address)": {
        "notice": "Updates the Discount Rate Strategy"
      },
      "updateDiscountToken(address)": {
        "notice": "Updates the Discount Token"
      }
    },
    "notice": "Implements a variable debt token to track the borrowing positions of users at variable rate mode for GHO",
    "version": 1
  },
  "storageLayout": {
    "storage": [
      {
        "astId": 4441,
        "contract": "src/contracts/facilitators/aave/tokens/GhoVariableDebtToken.sol:GhoVariableDebtToken",
        "label": "lastInitializedRevision",
        "offset": 0,
        "slot": "0",
        "type": "t_uint256"
      },
      {
        "astId": 4444,
        "contract": "src/contracts/facilitators/aave/tokens/GhoVariableDebtToken.sol:GhoVariableDebtToken",
        "label": "initializing",
        "offset": 0,
        "slot": "1",
        "type": "t_bool"
      },
      {
        "astId": 4514,
        "contract": "src/contracts/facilitators/aave/tokens/GhoVariableDebtToken.sol:GhoVariableDebtToken",
        "label": "______gap",
        "offset": 0,
        "slot": "2",
        "type": "t_array(t_uint256)50_storage"
      },
      {
        "astId": 17815,
        "contract": "src/contracts/facilitators/aave/tokens/GhoVariableDebtToken.sol:GhoVariableDebtToken",
        "label": "_nonces",
        "offset": 0,
        "slot": "52",
        "type": "t_mapping(t_address,t_uint256)"
      },
      {
        "astId": 17817,
        "contract": "src/contracts/facilitators/aave/tokens/GhoVariableDebtToken.sol:GhoVariableDebtToken",
        "label": "_domainSeparator",
        "offset": 0,
        "slot": "53",
        "type": "t_bytes32"
      },
      {
        "astId": 17592,
        "contract": "src/contracts/facilitators/aave/tokens/GhoVariableDebtToken.sol:GhoVariableDebtToken",
        "label": "_borrowAllowances",
        "offset": 0,
        "slot": "54",
        "type": "t_mapping(t_address,t_mapping(t_address,t_uint256))"
      },
      {
        "astId": 17599,
        "contract": "src/contracts/facilitators/aave/tokens/GhoVariableDebtToken.sol:GhoVariableDebtToken",
        "label": "_underlyingAsset",
        "offset": 0,
        "slot": "55",
        "type": "t_address"
      },
      {
        "astId": 17981,
        "contract": "src/contracts/facilitators/aave/tokens/GhoVariableDebtToken.sol:GhoVariableDebtToken",
        "label": "_userState",
        "offset": 0,
        "slot": "56",
        "type": "t_mapping(t_address,t_struct(UserState)17976_storage)"
      },
      {
        "astId": 17987,
        "contract": "src/contracts/facilitators/aave/tokens/GhoVariableDebtToken.sol:GhoVariableDebtToken",
        "label": "_allowances",
        "offset": 0,
        "slot": "57",
        "type": "t_mapping(t_address,t_mapping(t_address,t_uint256))"
      },
      {
        "astId": 17989,
        "contract": "src/contracts/facilitators/aave/tokens/GhoVariableDebtToken.sol:GhoVariableDebtToken",
        "label": "_totalSupply",
        "offset": 0,
        "slot": "58",
        "type": "t_uint256"
      },
      {
        "astId": 17991,
        "contract": "src/contracts/facilitators/aave/tokens/GhoVariableDebtToken.sol:GhoVariableDebtToken",
        "label": "_name",
        "offset": 0,
        "slot": "59",
        "type": "t_string_storage"
      },
      {
        "astId": 17993,
        "contract": "src/contracts/facilitators/aave/tokens/GhoVariableDebtToken.sol:GhoVariableDebtToken",
        "label": "_symbol",
        "offset": 0,
        "slot": "60",
        "type": "t_string_storage"
      },
      {
        "astId": 17995,
        "contract": "src/contracts/facilitators/aave/tokens/GhoVariableDebtToken.sol:GhoVariableDebtToken",
        "label": "_decimals",
        "offset": 0,
        "slot": "61",
        "type": "t_uint8"
      },
      {
        "astId": 17998,
        "contract": "src/contracts/facilitators/aave/tokens/GhoVariableDebtToken.sol:GhoVariableDebtToken",
        "label": "_incentivesController",
        "offset": 1,
        "slot": "61",
        "type": "t_contract(IAaveIncentivesController)2499"
      },
      {
        "astId": 73223,
        "contract": "src/contracts/facilitators/aave/tokens/GhoVariableDebtToken.sol:GhoVariableDebtToken",
        "label": "_ghoAToken",
        "offset": 0,
        "slot": "62",
        "type": "t_address"
      },
      {
        "astId": 73226,
        "contract": "src/contracts/facilitators/aave/tokens/GhoVariableDebtToken.sol:GhoVariableDebtToken",
        "label": "_discountToken",
        "offset": 0,
        "slot": "63",
        "type": "t_contract(IERC20)745"
      },
      {
        "astId": 73229,
        "contract": "src/contracts/facilitators/aave/tokens/GhoVariableDebtToken.sol:GhoVariableDebtToken",
        "label": "_discountRateStrategy",
        "offset": 0,
        "slot": "64",
        "type": "t_contract(IGhoDiscountRateStrategy)71882"
      },
      {
        "astId": 73239,
        "contract": "src/contracts/facilitators/aave/tokens/GhoVariableDebtToken.sol:GhoVariableDebtToken",
        "label": "_ghoUserState",
        "offset": 0,
        "slot": "65",
        "type": "t_mapping(t_address,t_struct(GhoUserState)73234_storage)"
      }
    ],
    "types": {
      "t_address": {
        "encoding": "inplace",
        "label": "address",
        "numberOfBytes": "20"
      },
      "t_array(t_uint256)50_storage": {
        "base": "t_uint256",
        "encoding": "inplace",
        "label": "uint256[50]",
        "numberOfBytes": "1600"
      },
      "t_bool": {
        "encoding": "inplace",
        "label": "bool",
        "numberOfBytes": "1"
      },
      "t_bytes32": {
        "encoding": "inplace",
        "label": "bytes32",
        "numberOfBytes": "32"
      },
      "t_contract(IAaveIncentivesController)2499": {
        "encoding": "inplace",
        "label": "contract IAaveIncentivesController",
        "numberOfBytes": "20"
      },
      "t_contract(IERC20)745": {
        "encoding": "inplace",
        "label": "contract IERC20",
        "numberOfBytes": "20"
      },
      "t_contract(IGhoDiscountRateStrategy)71882": {
        "encoding": "inplace",
        "label": "contract IGhoDiscountRateStrategy",
        "numberOfBytes": "20"
      },
      "t_mapping(t_address,t_mapping(t_address,t_uint256))": {
        "encoding": "mapping",
        "key": "t_address",
        "label": "mapping(address => mapping(address => uint256))",
        "numberOfBytes": "32",
        "value": "t_mapping(t_address,t_uint256)"
      },
      "t_mapping(t_address,t_struct(GhoUserState)73234_storage)": {
        "encoding": "mapping",
        "key": "t_address",
        "label": "mapping(address => struct GhoVariableDebtToken.GhoUserState)",
        "numberOfBytes": "32",
        "value": "t_struct(GhoUserState)73234_storage"
      },
      "t_mapping(t_address,t_struct(UserState)17976_storage)": {
        "encoding": "mapping",
        "key": "t_address",
        "label": "mapping(address => struct IncentivizedERC20.UserState)",
        "numberOfBytes": "32",
        "value": "t_struct(UserState)17976_storage"
      },
      "t_mapping(t_address,t_uint256)": {
        "encoding": "mapping",
        "key": "t_address",
        "label": "mapping(address => uint256)",
        "numberOfBytes": "32",
        "value": "t_uint256"
      },
      "t_string_storage": {
        "encoding": "bytes",
        "label": "string",
        "numberOfBytes": "32"
      },
      "t_struct(GhoUserState)73234_storage": {
        "encoding": "inplace",
        "label": "struct GhoVariableDebtToken.GhoUserState",
        "members": [
          {
            "astId": 73231,
            "contract": "src/contracts/facilitators/aave/tokens/GhoVariableDebtToken.sol:GhoVariableDebtToken",
            "label": "accumulatedDebtInterest",
            "offset": 0,
            "slot": "0",
            "type": "t_uint128"
          },
          {
            "astId": 73233,
            "contract": "src/contracts/facilitators/aave/tokens/GhoVariableDebtToken.sol:GhoVariableDebtToken",
            "label": "discountPercent",
            "offset": 16,
            "slot": "0",
            "type": "t_uint16"
          }
        ],
        "numberOfBytes": "32"
      },
      "t_struct(UserState)17976_storage": {
        "encoding": "inplace",
        "label": "struct IncentivizedERC20.UserState",
        "members": [
          {
            "astId": 17973,
            "contract": "src/contracts/facilitators/aave/tokens/GhoVariableDebtToken.sol:GhoVariableDebtToken",
            "label": "balance",
            "offset": 0,
            "slot": "0",
            "type": "t_uint128"
          },
          {
            "astId": 17975,
            "contract": "src/contracts/facilitators/aave/tokens/GhoVariableDebtToken.sol:GhoVariableDebtToken",
            "label": "additionalData",
            "offset": 16,
            "slot": "0",
            "type": "t_uint128"
          }
        ],
        "numberOfBytes": "32"
      },
      "t_uint128": {
        "encoding": "inplace",
        "label": "uint128",
        "numberOfBytes": "16"
      },
      "t_uint16": {
        "encoding": "inplace",
        "label": "uint16",
        "numberOfBytes": "2"
      },
      "t_uint256": {
        "encoding": "inplace",
        "label": "uint256",
        "numberOfBytes": "32"
      },
      "t_uint8": {
        "encoding": "inplace",
        "label": "uint8",
        "numberOfBytes": "1"
      }
    }
  }
}