{
  "address": "0x42711581411dCEba3906Cd22e0E96924E5B3E482",
  "abi": [
    {
      "inputs": [
        {
          "internalType": "contract IPool",
          "name": "pool",
          "type": "address"
        },
        {
          "internalType": "contract IGhoToken",
          "name": "ghoToken",
          "type": "address"
        }
      ],
      "stateMutability": "nonpayable",
      "type": "constructor"
    },
    {
      "inputs": [],
      "name": "GHO",
      "outputs": [
        {
          "internalType": "contract IGhoToken",
          "name": "",
          "type": "address"
        }
      ],
      "stateMutability": "view",
      "type": "function"
    },
    {
      "inputs": [],
      "name": "POOL",
      "outputs": [
        {
          "internalType": "contract IPool",
          "name": "",
          "type": "address"
        }
      ],
      "stateMutability": "view",
      "type": "function"
    },
    {
      "inputs": [],
      "name": "getGhoReserveData",
      "outputs": [
        {
          "components": [
            {
              "internalType": "uint256",
              "name": "ghoBaseVariableBorrowRate",
              "type": "uint256"
            },
            {
              "internalType": "uint256",
              "name": "ghoDiscountedPerToken",
              "type": "uint256"
            },
            {
              "internalType": "uint256",
              "name": "ghoDiscountRate",
              "type": "uint256"
            },
            {
              "internalType": "uint256",
              "name": "ghoMinDebtTokenBalanceForDiscount",
              "type": "uint256"
            },
            {
              "internalType": "uint256",
              "name": "ghoMinDiscountTokenBalanceForDiscount",
              "type": "uint256"
            },
            {
              "internalType": "uint40",
              "name": "ghoReserveLastUpdateTimestamp",
              "type": "uint40"
            },
            {
              "internalType": "uint128",
              "name": "ghoCurrentBorrowIndex",
              "type": "uint128"
            },
            {
              "internalType": "uint256",
              "name": "aaveFacilitatorBucketLevel",
              "type": "uint256"
            },
            {
              "internalType": "uint256",
              "name": "aaveFacilitatorBucketMaxCapacity",
              "type": "uint256"
            }
          ],
          "internalType": "struct IUiGhoDataProvider.GhoReserveData",
          "name": "",
          "type": "tuple"
        }
      ],
      "stateMutability": "view",
      "type": "function"
    },
    {
      "inputs": [
        {
          "internalType": "address",
          "name": "user",
          "type": "address"
        }
      ],
      "name": "getGhoUserData",
      "outputs": [
        {
          "components": [
            {
              "internalType": "uint256",
              "name": "userGhoDiscountPercent",
              "type": "uint256"
            },
            {
              "internalType": "uint256",
              "name": "userDiscountTokenBalance",
              "type": "uint256"
            },
            {
              "internalType": "uint256",
              "name": "userPreviousGhoBorrowIndex",
              "type": "uint256"
            },
            {
              "internalType": "uint256",
              "name": "userGhoScaledBorrowBalance",
              "type": "uint256"
            }
          ],
          "internalType": "struct IUiGhoDataProvider.GhoUserData",
          "name": "",
          "type": "tuple"
        }
      ],
      "stateMutability": "view",
      "type": "function"
    }
  ],
  "transactionHash": "0x51aac23769d029d339beffc59515c8ce1b3fcbee6a546f86366e8b7fcf7e8bda",
  "args": [
    "0x3e9b7D063f0bC642207044360aE91F05F398B793",
    "0xa253E6A7c15E950a02132CD1c60f0386CE821993"
  ],
  "numDeployments": 1,
  "solcInputHash": "2b6fe4af59ecc015f72062d04df7b7d6",
  "bytecode": "0x60c060405234801561001057600080fd5b50604051610c5c380380610c5c83398101604081905261002f9161005e565b6001600160a01b039182166080521660a052610098565b6001600160a01b038116811461005b57600080fd5b50565b6000806040838503121561007157600080fd5b825161007c81610046565b602084015190925061008d81610046565b809150509250929050565b60805160a051610b7e6100de6000396000818160e0015281816101c90152818161052201526106580152600081816056015281816101f4015261054d0152610b7e6000f3fe608060405234801561001057600080fd5b506004361061004c5760003560e01c80637535d2461461005157806382d761a914610095578063b8d008f3146100db578063f5a5b36414610102575b600080fd5b6100787f000000000000000000000000000000000000000000000000000000000000000081565b6040516001600160a01b0390911681526020015b60405180910390f35b6100a86100a33660046108d1565b610187565b60405161008c91908151815260208083015190820152604080830151908201526060918201519181019190915260800190565b6100787f000000000000000000000000000000000000000000000000000000000000000081565b61010a6104ac565b60405161008c9190600061012082019050825182526020830151602083015260408301516040830152606083015160608301526080830151608083015264ffffffffff60a08401511660a08301526001600160801b0360c08401511660c083015260e083015160e083015261010080840151818401525092915050565b6101b26040518060800160405280600081526020016000815260200160008152602001600081525090565b6040516335ea6a7560e01b81526001600160a01b037f0000000000000000000000000000000000000000000000000000000000000000811660048301526000917f0000000000000000000000000000000000000000000000000000000000000000909116906335ea6a75906024016101e060405180830381865afa15801561023e573d6000803e3d6000fd5b505050506040513d601f19601f8201168201806040525081019061026291906109cb565b9050600081610140015190506000816001600160a01b031663efe3de146040518163ffffffff1660e01b8152600401602060405180830381865afa1580156102ae573d6000803e3d6000fd5b505050506040513d601f19601f820116820180604052508101906102d29190610aee565b604080516080810191829052636c53272b60e01b9091526001600160a01b0387811660848301529192509081908416636c53272b60a48301602060405180830381865afa158015610327573d6000803e3d6000fd5b505050506040513d601f19601f8201168201806040525081019061034b9190610b0b565b81526040516370a0823160e01b81526001600160a01b0388811660048301526020909201918416906370a0823190602401602060405180830381865afa158015610399573d6000803e3d6000fd5b505050506040513d601f19601f820116820180604052508101906103bd9190610b0b565b815260405163703a9cc360e11b81526001600160a01b03888116600483015260209092019185169063e075398690602401602060405180830381865afa15801561040b573d6000803e3d6000fd5b505050506040513d601f19601f8201168201806040525081019061042f9190610b0b565b8152604051630ed1279f60e11b81526001600160a01b038881166004830152602090920191851690631da24f3e90602401602060405180830381865afa15801561047d573d6000803e3d6000fd5b505050506040513d601f19601f820116820180604052508101906104a19190610b0b565b905295945050505050565b61050b6040518061012001604052806000815260200160008152602001600081526020016000815260200160008152602001600064ffffffffff16815260200160006001600160801b0316815260200160008152602001600081525090565b6040516335ea6a7560e01b81526001600160a01b037f0000000000000000000000000000000000000000000000000000000000000000811660048301526000917f0000000000000000000000000000000000000000000000000000000000000000909116906335ea6a75906024016101e060405180830381865afa158015610597573d6000803e3d6000fd5b505050506040513d601f19601f820116820180604052508101906105bb91906109cb565b9050600081610140015190506000816001600160a01b031663fe49b7946040518163ffffffff1660e01b8152600401602060405180830381865afa158015610607573d6000803e3d6000fd5b505050506040513d601f19601f8201168201806040525081019061062b9190610aee565b6101008401516040516355017ca560e11b81526001600160a01b03918216600482015291925060009182917f0000000000000000000000000000000000000000000000000000000000000000169063aa02f94a906024016040805180830381865afa15801561069e573d6000803e3d6000fd5b505050506040513d601f19601f820116820180604052508101906106c29190610b24565b9150915060405180610120016040528086608001516001600160801b03168152602001846001600160a01b031663771a73af6040518163ffffffff1660e01b8152600401602060405180830381865afa158015610723573d6000803e3d6000fd5b505050506040513d601f19601f820116820180604052508101906107479190610b0b565b8152602001846001600160a01b031663b510c5896040518163ffffffff1660e01b8152600401602060405180830381865afa15801561078a573d6000803e3d6000fd5b505050506040513d601f19601f820116820180604052508101906107ae9190610b0b565b8152602001846001600160a01b03166398c4f4386040518163ffffffff1660e01b8152600401602060405180830381865afa1580156107f1573d6000803e3d6000fd5b505050506040513d601f19601f820116820180604052508101906108159190610b0b565b8152602001846001600160a01b0316633454274e6040518163ffffffff1660e01b8152600401602060405180830381865afa158015610858573d6000803e3d6000fd5b505050506040513d601f19601f8201168201806040525081019061087c9190610b0b565b81526020018660c0015164ffffffffff16815260200186606001516001600160801b03168152602001828152602001838152509550505050505090565b6001600160a01b03811681146108ce57600080fd5b50565b6000602082840312156108e357600080fd5b81356108ee816108b9565b9392505050565b6040516101e0810167ffffffffffffffff8111828210171561092757634e487b7160e01b600052604160045260246000fd5b60405290565b60006020828403121561093f57600080fd5b6040516020810181811067ffffffffffffffff8211171561097057634e487b7160e01b600052604160045260246000fd5b6040529151825250919050565b80516001600160801b038116811461099457600080fd5b919050565b805164ffffffffff8116811461099457600080fd5b805161ffff8116811461099457600080fd5b8051610994816108b9565b60006101e082840312156109de57600080fd5b6109e66108f5565b6109f0848461092d565b81526109fe6020840161097d565b6020820152610a0f6040840161097d565b6040820152610a206060840161097d565b6060820152610a316080840161097d565b6080820152610a4260a0840161097d565b60a0820152610a5360c08401610999565b60c0820152610a6460e084016109ae565b60e0820152610100610a778185016109c0565b90820152610120610a898482016109c0565b90820152610140610a9b8482016109c0565b90820152610160610aad8482016109c0565b90820152610180610abf84820161097d565b908201526101a0610ad184820161097d565b908201526101c0610ae384820161097d565b908201529392505050565b600060208284031215610b0057600080fd5b81516108ee816108b9565b600060208284031215610b1d57600080fd5b5051919050565b60008060408385031215610b3757600080fd5b50508051602090910151909290915056fea2646970667358221220caf3cd8e0f838aa185c2bbca7ca797037d8c8f172665b27018b14168d0431e3464736f6c634300080a0033",
  "devdoc": {
    "author": "Aave",
    "kind": "dev",
    "methods": {
      "constructor": {
        "details": "Constructor",
        "params": {
          "ghoToken": "The address of the GhoToken contract",
          "pool": "The address of the Pool contract"
        }
      },
      "getGhoReserveData()": {
        "returns": {
          "_0": "An object with information related to the GHO reserve and the Aave Facilitator"
        }
      },
      "getGhoUserData(address)": {
        "returns": {
          "_0": "An object with information related to the user's position with regard to GHO"
        }
      }
    },
    "title": "UiGhoDataProvider",
    "version": 1
  },
  "userdoc": {
    "kind": "user",
    "methods": {
      "getGhoReserveData()": {
        "notice": "Returns data of the GHO reserve and the Aave Facilitator"
      },
      "getGhoUserData(address)": {
        "notice": "Returns data of the user's position on GHO"
      }
    },
    "notice": "Data provider of GHO token as a reserve within the Aave Protocol",
    "version": 1
  },
  "storageLayout": {
    "storage": [],
    "types": null
  }
}